:020000040000fa
:080000000001040000000000f3
:020000040000fa
:100008002c0900002c0900002c0900002c09000014
:100018002c0900002c0900002c0900002c09000004
:100028002c0900002c0900002c0900002c090000f4
:100038002c0900002c0900002c0900002c090000e4
:100048002c0900002c0900002c090000d60700002c
:100058002c0900002c0900002c0900002c090000c4
:100068002c0900002c0900002c0900002c090000b4
:100078002c0900002c0900002c0900002c090000a4
:100088002c0900002c0900002c0900002c09000094
:100098002c0900002c0900002c0900002c09000084
:1000a8002c0900002c0900002c0900002c09000074
:1000b8002c0900002c0900006e0e00002c0900001d
:1000c8002c0900002c0900002c0900002c09000054
:1000d8002c0900002c0900002c0900002c09000044
:1000e8002c0900002c0900002c0900002c09000034
:0800f8002c0900002c09000096
:020000040000fa
:100108002c0900002c0900002c0900002c09000013
:100118002c0900002c0900002c0900002c09000003
:100128002c0900002c0900002c0900002c090000f3
:100138002c0900002c0900002c0900002c090000e3
:100148002c0900002c0900002c090000d60700002b
:100158002c0900002c0900002c0900002c090000c3
:100168002c0900002c0900002c0900002c090000b3
:100178002c0900002c0900002c0900002c090000a3
:100188002c0900002c0900002c0900002c09000093
:100198002c0900002c0900002c0900002c09000083
:1001a8002c0900002c0900002c0900002c09000073
:1001b8002c0900002c0900006e0e00002c0900001c
:1001c8002c0900002c0900002c0900002c09000053
:1001d8002c0900002c0900002c0900002c09000043
:1001e8002c0900002c0900002c0900002c09000033
:0801f8002c0900002c09000095
:020000040000fa
:10020000afad20000e7f22000e018800000000002c
:10021000000020000000e000020032000001200089
:10022000200288000c00070040b6210001002000d9
:1002300011000700000020000000e0000200320072
:1002400000000200000000004a020200000000005e
:100250000040da000000fe004440a9000004200035
:100260000000e0000300320000002000a001880030
:100270004440a8000000060091018800800078003a
:100280000000eb0015003700e280400032a0b4000f
:100290009101ba00e280400032a0b4009102ba009d
:1002a000e280400032a0b4000002eb00472bde00e9
:1002b000f507b200602ce10004003a000059eb00a1
:1002c0008301e900fdff3e00040037006128e100e2
:1002d000010032000082eb00040007001101ba00a7
:1002e0000200e000e8ff3a00000006003159ba00c1
:1002f0008301e9000c0032002159ba008301e900b2
:10030000080032000400e00003003a00e2804000f0
:1003100032a0b400f5ff370011d9ba008301e9001b
:10032000faff3a008100e800e180400032a0b4000a
:10033000000006003200f800910188000008bb00b0
:10034000410424006210e100040032000002200099
:100350000010e1000a003a0051042400013b88002b
:100360000500fc0051052000313b8800a10a200057
:10037000313b880061e7a800000000000000000099
:100380003200f900000006003200f800600424008a
:10039000003b8800f2ff37003200f800910188002e
:1003a00041002400013b88000208bb00ecff37003d
:1003b0003200f8009101880051002400013b8800c0
:1003c000030120003218bb008301e900fdff3a0061
:1003d000e3ff37006022b800060220000000d000d2
:1003e0008180d2000482d2008582d2000000a00069
:1003f0000202520083825a000300310002024200ce
:1004000083824a000000a1000603e900f3ff3a00de
:0404100000000600e2
:020000040000fa
:1004140000000000008000000000000000800000d8
:1004240000000000008000000000000000800000c8
:1004340000000000008000000000000000800000b8
:1004440000000000008000000000000000800000a8
:100454000000000000000000000000000000000098
:100464000000000000000000000000000000000088
:100474000000000000000000000000000000000078
:100484000000000000000000000000000000000068
:020000040000fa
:100494000000fa000401200044568800010007000f
:1004a400feff37000000fa004456800005032000d8
:1004b400850f52002a00320005032000850f5200e8
:1004c40006003e00f00f52000e003200050220002c
:1004d400850f520013003200740037000505200018
:1004e400850f52005a00320005062000850f520085
:1004f4006500320005042000850f520044003200dc
:100504006a003700c50107008809a8008849a800c7
:100514000002eb00045688000402200044568800c0
:10052400650037008809a800650007000700370048
:1005340077000700444c800064026200e00f520020
:1005440002003a0004032000445688004556800007
:1005540004022000848f5200f5ff32005600370059
:10056400045680000402e800045688008809a800a4
:100574000002eb00245688005b0007001f003700d0
:100584006300070025568000743e2000848f5200cb
:100594000f0036000002eb0004568800843e200061
:1005a40024568800a498200014027800e00f52001a
:1005b40005003200449c20001402780061026200ad
:1005c400e00f520002003200040420004456880068
:1005d40014568000e00f52000800320004568000d8
:1005e400e50f520003003e00040520004456880035
:1005f4000200370004062000445688004556800057
:1006040004032000848f5200ddff32002a003700eb
:100614008809a900a49820008002eb00050a78004c
:10062400060037003a00070014568000e00f52001d
:10063400020032000405200044568800455680001c
:1006440004042000848f5200f6ff32001a003700a1
:100654001b0007008809a800060037002c000700cb
:1006640014568000e00f520002003a0004022000f9
:10067400445688004556800004052000848f5200ab
:10068400f6ff32000c0037000d0007008809a800af
:100694008969a800010037001d0007004556800045
:1006a40004062000848f5200fbff32000406200061
:1006b40044568800000000000080fa000000060094
:1006c4000000fa000002eb00845488000002eb00f2
:1006d40044558800d642a900d662a900d622a900b2
:1006e4000080fa00000006000000fa001400200058
:1006f400845488001400200044558800d642a80081
:10070400d662a800d622a8000080fa0000000600e5
:100714000000fa00d50207004516800004002800f6
:1007240004826200e00f5200030032008b89a800ab
:1007340014002000145688001516800004002100bf
:1007440004826200e00f5200030032008ba9a8006b
:10075400140020001456880035048000040420008e
:1007640004826200e00f52002a01320086c0a90010
:1007740004568000444b880014568000544b880073
:1007840024568000644b880044568000744b8800d3
:10079400449c200014027800844b88004556800055
:1007a40004032000848f520003003a002456800082
:1007b4000402e80024568800345680000402e8004d
:1007c400345688003556800014032000848f52006c
:1007d4000a0036000002eb003456880045178000fa
:1007e4000400240004826200e00f52000200320080
:1007f400e9c2a90001003700e9c2a8000002eb0029
:10080400c44a880065568000745680000482420001
:10081400d44a8800855680009456800004824200a1
:10082400f44a8800444c800061026200e00f5200e8
:1008340002003200d062a90001003700d062a80093
:10084400451680000400210004826200e00f52007b
:10085400020032008909a800010037008909a900b3
:10086400451680000400220004826200e00f52005a
:10087400020032008929a800010037008929a90053
:10088400151680000400280004826200e00f520064
:10089400020032008949a800010037008949a900f3
:1008a400b416800070026200e00f520002003200b1
:1008b400d682a90001003700d682a80080a62000b5
:1008c4005b06070040a420005906070000a2200090
:1008d40057060700c09f2000550607000002eb00e2
:1008e4001456880045168000040028000482620023
:1008f400e00f5200030032008b89a800140020008e
:100904001456880015168000040021000482620039
:10091400e00f5200030032008ba9a800140020004d
:1009240014568800449c200014027800700262006f
:10093400e00f5200040032008bc9a800140020000c
:100944001456880006003700449c200014027800e6
:1009540061026200e00f5200010032008bc9a9005d
:10096400444c800062026200e00f52000300320037
:100974008be9a80014002000145688004556800016
:1009840004042000848f5200040032004556800085
:1009940004032000848f520073003a002455800021
:1009a40004548800245580000001eb00010021005c
:1009b400040078002e0b070000027800e45288003f
:1009c40064548000c4518800645480000001eb002a
:1009d400a170210004007800250b070000027800b4
:1009e400a450880000a220005006070000027800ee
:1009f400e00f5200030032008a09a800140020000e
:100a04001456880000a22000560607000002780051
:100a1400e00f5200030032008a29a80014002000cd
:100a24001456880000a220005c060700000278002b
:100a3400e00f5200030032008a49a800140020008d
:100a44001456880000a220009f06070000027800c8
:100a5400e00f5200030032008a69a800140020004d
:100a640014568800c09f200030060700000278005a
:100a7400e00f5200030032008a89a800140020000d
:100a840014568800c09f20008f06070000027800db
:100a9400e00f5200030032008aa9a80014002000cd
:100aa4001456880080a62000200607000002780063
:100ab400e00f5200030032008ac9a800140020008d
:100ac4001456880080a6200026060700000278003d
:100ad400e00f5200030032008ae9a800140020004d
:100ae4001456880080a620002c0607000002780017
:100af400e00f5200030032008b09a800140020000c
:100b04001456880080a620006f06070000027800b3
:100b1400e00f5200030032008b29a80014002000cb
:100b24001456880040a42000000607000002780044
:100b3400e00f5200030032008b49a800140020008b
:100b44001456880040a420005f06070000027800c5
:100b5400e00f52000c0032008b69a8001400200042
:100b640014568800080037000002eb000454880083
:100b74000002eb00e45288000002eb00c45188003c
:100b84000002eb00a45088004556800004042000b5
:100b9400848f520004003200455680000403200074
:100ba400848f520011003a00c0a82000720507008b
:100bb400345580004422de00040178000100210045
:100bc400c09c2000d409070040aa20006a05070041
:100bd400745480004422de000401780001002900de
:100be400c09c2000cc0907000a003700745580001f
:100bf4000401780001002100c09c2000c609070000
:100c0400b45480000401780001002900c09c200035
:100c1400c10907000080fa00000006000000fa0085
:100c24000002eb00044d880014002000f44c8800fe
:100c3400e4002000144d88000003eb00c55122009d
:100c4400045f25008041eb000001eb009199210035
:100c540040aa2000fb0407000003eb008002eb0025
:100c640004ee220013c0b3000001eb0091992100af
:100c7400c0a82000f304070024032000841f780088
:100c8400077d2000060022008002eb0004dc250022
:100c940083c0b3000001eb0041c3200080a6200004
:100ca400880407008f87e90024032000841f78004c
:100cb400077d2000060022008002eb0004dc2500f2
:100cc400a3c0b3000001eb002162200040a4200077
:100cd4007c0407008f87e90024032000841f780028
:100ce400077d2000060022008002eb0084a9230077
:100cf40093c0b3000001eb0041c3200000a2200018
:100d0400700407008f87e900441f2000841f7800c7
:100d1400077d2000363327008002eb0004dc250029
:100d2400b3c0b3000001eb0021622000c09f20008b
:100d3400640407008f87e900a49820008002eb0078
:100d4400050a7800849820008002eb00050a7800e8
:100d54000002eb00644c88000002eb00744c880035
:100d64000002eb00844c88000002eb00944c8800e5
:100d74000002eb00245588000002eb006454880054
:100d8400340580000400a0000410a0000420a0008a
:100d9400340588008220a900c404800004c0a10096
:100da40004d0a00004e0a000c404880004002f00c4
:100db400041688000082eb00341688000002eb0061
:100dc4006416880004002c00941688008400200017
:100dd400f41688003416200024178800d4f92d0056
:100de400040988000002eb00c408880086c0a9003a
:100df400440d2300e4088800f4cf2700041588007c
:100e0400e4fd20001415880084442e002415880075
:100e1400848e2e003415880034002f004415880079
:100e240004f02000541588008560a9008d60a80096
:100e3400a1e2a8000400240065002000644e88009c
:100e4400754e880004022000a5002000844e88000e
:100e5400954e880024c0b30004007800d4e9b7009c
:100e6400f4532000b44e88000002eb00c44e880006
:100e740004002a00d44e880004242400f500200035
:100e8400e44e8800f54e8800046829008509200096
:100e9400044f8800154f88000400280065002000d6
:100ea400244f8800354f880004022000a50020004c
:100eb400444f8800554f8800449d20001442780018
:100ec40004007800ece9b700b44e8000744f880049
:100ed400c44e8000844f8800d44e8000944f880014
:100ee400e44e8000f54e8000a44f8800b54f880082
:100ef400044f8000154f8000c44f8800d54f8800f0
:100f0400c09c2000df080700409e2000dd08070089
:100f1400e602070000242400f1002000f90907007c
:100f24000060fe00d082a80000242400f10020000c
:100f3400f40907000060fe00d062a8000024240029
:100f4400f1002000ef0907000060fe00d042a80075
:100f540000242400f1002000ea0907000060fe00dc
:100f6400d022a80000242400f1002000e509070095
:100f74000060fe00e9e2a80000242400f100200043
:100f8400e00907000060fe00e9a2a8000024240094
:100f9400f1002000db0907000060fe00e982a800e0
:100fa4000080fa0000000600801f7800849fbe00c5
:100fb400869fbe000000fa008560a900f4558000f9
:100fc400e00f5200030032000002eb00f4558800e9
:100fd4009b0037001515800004082000048262007d
:100fe400e00f52002900320046538000575380001e
:100ff400051480004414800004824200050020008f
:101004000602420087824a004453880055538800f0
:10101400065180001751800015148000541480007c
:1010240004824200050020000602420087824a0032
:1010340004518800155188002652800037528000e0
:1010440025148000641480000482420005002000fe
:101054000602420087824a002452880035528800e2
:10106400e64f8000f74f8000351480007414800030
:1010740004824200050020000602420087824a00e2
:10108400e44f8800f54f880028003700465380005d
:101094005753800085148000c414800004824200e9
:1010a400050020000602420087824a00445388005b
:1010b4005553880006518000175180009514800014
:1010c400d41480000482420005002000060242007d
:1010d40087824a00045188001551880026528000f6
:1010e40037528000a5148000e4148000048242007a
:1010f400050020000602420087824a00245288002c
:1011040035528800e64f8000f74f8000b514800008
:10111400f41480000482420005002000060242000c
:1011240087824a00e44f8800f54f8800e455800028
:101134000482e800e4558800e5558000f40f20009f
:10114400848f52003e003600445380005553800083
:101154004c2bdd004422de0004027300c42ade00ae
:1011640044538800555388004453800055538000ed
:1011740004027800645388006022b8004453880055
:101184005553880024528000355280004c2bdd00da
:101194004422de0004027300c42ade0024528800c4
:1011a40035528800245280003552800004027800b1
:1011b400445288006022b8002452880035528800c6
:1011c40004518000155180004c2bdd004422de00c8
:1011d40004027300c42ade000451880015518800fb
:1011e40004518000155180000402780024518800c5
:1011f4006022b8000451880015518800e44f800033
:10120400f54f80004c2bdd004422de000402730005
:10121400c42ade00e44f8800f54f8800e44f8000c4
:10122400f54f800004027800045088006022b80062
:10123400e44f8800f54f88000002eb00e455880075
:101244000080fa004f03be004f02be004f0078003a
:10125400004006000000fa0000000000000000004a
:101264000000fe000080fa00004006000000fa00c2
:101274001f000700e3000700d7010700e50107008e
:10128400144e8000e44a8800e54a8000e44d800062
:1012940004824200e44a8800e54a8000f44d80005c
:1012a40004824200e44a8800e54a8000044e80003b
:1012b40004824200e44a8800e54a8000c44d80006c
:1012c40004824200e44a8800e54a8000b44d80006c
:1012d40004824200e44a8800e54a8000a44d80006c
:1012e40004824200e44a88000080fa0000000600fc
:1012f4000a00fa001e0037008e00780040802000ab
:10130400a20707009e0278008407200084826200fe
:1013140084032000848f520004003200c44d8000f6
:101324000402e800c44d8800110037009e027800d2
:10133400844b2100848f520003003a000e00780091
:10134400160007000a0037009e027800846321001b
:10135400848f520003003a000e00780068000700f2
:1013640003003700a44d80000402e800a44d880067
:10137400408020003707070000027800e00f520089
:10138400ddff3a0094458000e44d8800544080001d
:10139400f44d88000080fa00000006000400fa0002
:1013a400100798001e029000c4029000050f7800f8
:1013b40004002f009e02620004002700848f520064
:1013c40004003200b44d80000402e800b44d8800eb
:1013d4001a003700f4ff20001e0f6200f40f2000f3
:1013e4009e027800848f520003003e001e0090008d
:1013f4001400070011003700f41f20009e0278003b
:10140400848f520003003e001e0090002400070059
:101414000a003700f43f20009e027800848f5200b7
:1014240003003e001e00900044080700030037003c
:10143400b44d80000402e800b44d88000080fa0036
:10144400000006000400fa00100798001e02900035
:10145400c4029000050f7800f4ff20001e0f620004
:101464001e027800e10f520003003200e30f520025
:1014740003003200040037000000fe0006003700bd
:101484005a04070004003700b44d80000402e80049
:10149400b44d8800000000000080fa00000006003f
:1014a4000400fa00100798001e029000c402900085
:1014b400050f7800f4ff20001e0f62001e0290004a
:1014c40014029000840078001e007800f0050700e4
:1014d4001e029000a40290001e02e800850078001d
:1014e40004007800ea050700000000000000000086
:1014f40000000000000000000080fa000000060068
:101504000e00fa00600798006e029000c40290007a
:10151400050f780004002f009e02620004002700db
:10152400848f520004003200b44d80000402e800ad
:10153400b44d88002e003700f4ff20001e0f620017
:10154400f48f20009e027800848f5200040036003d
:10155400f49f20009e027800848f5200040036001d
:10156400b44d80000402e800b44d88002000370028
:1015740004802f001e0f4200c4032a0014079800a1
:101584006e029000c402900004802f000482420086
:10159400540798000002eb00440798001e02e8007c
:1015a40004007800e305070000027800340798007f
:1015b4001e007800df050700000278002407980069
:1015c4000000000000000000000000000e82e8009f
:1015d40084007800c08a2000d406070074218000ab
:1015e40068026200e00f520001003a0088c0a800bf
:1015f4000080fa00000006000000fa000080fa00f3
:10160400000006000000fa00250480000404200005
:1016140004826200e00f5200a000320084c0a900de
:10162400044080000402e800044088000440800074
:101634006f026200044088009a00070004408000a2
:1016440005002000f600200007002000860f52004d
:10165400878f5a0091003e00046001000f0037009c
:1016640018003700210037002a0037003300370004
:101674003c003700450037004e0037005700370064
:101684006000370069003700720037007b003700c4
:101694007c0037007d0037007e003700f44a80006c
:1016a400e74a8000d64a8000c54a80008701780056
:1016b40006017800850078000000eb008e0007002a
:1016c400760037002496200014037800054b800030
:1016d4000002eb008001eb00060178008500780031
:1016e40010002000840007006c003700744b800059
:1016f400674b8000564b8000454b80008701780083
:101704000601780085007800200020007a00070098
:1017140062003700b44b8000a74b8000964b8000da
:10172400854b8000870178000601780085007800e9
:10173400300020007000070058003700f44b800090
:10174400e74b8000d64b8000c54b800087017800b2
:10175400060178008500780040002000660007003c
:101764004e003700344c8000274c8000164c80001b
:10177400054c800087017800060178008500780018
:10178400500020005c00070044003700544d8000e6
:10179400474d8000364d8000254d8000870178003c
:1017a40006017800850078008000200052000700c0
:1017b4003a003700944d8000874d8000764d8000bc
:1017c400654d800087017800060178008500780067
:1017d400900020004800070030003700d44d8000fe
:1017e400c74d8000b64d8000a54d8000870178006c
:1017f4000601780085007800a00020003e00070064
:1018040026003700144e8000074e8000f64d8000fd
:10181400e54d800087017800060178008500780096
:10182400b0002000340007001c003700d44c8000b6
:10183400c74c8000b64c8000a54c8000870178001e
:101844000601780085007800600020002a00070067
:1018540012003700144d8000074d8000f64c8000c4
:10186400e54c800087017800060178008500780047
:101874007000200020000700080037004a07070016
:101884000600370054070700040037005d0707000f
:10189400020037005e070700000000000080fa0025
:1018a400000006000a00fa00c4832a00040f78002e
:1018b400849820001402780014079800a49820004b
:1018c4001402780024079800644c800034079800c0
:1018d400744c800044079800e14120000e00780019
:1018e40059060700444d80000402e800444d880076
:1018f4000080fa00000006001400fa005007980067
:101904006107980072079800030f9800140f98005d
:101914005e0290006f02620054079800de0290009d
:101924000407200005027200540798005e0290002c
:101934000402420054079800de0290000460200074
:1019440005027200540798005e0290004222dd00f6
:10195400540798005e029000040f78009e027800fd
:1019640004f02f0004826200040f78001e02780045
:101974004322dd00040f78009e0278005e0390008d
:10198400f40f20000402630005027200040f7800c3
:101994001e0a9000140798000e0a9000240798006d
:1019a4007e029000340798006e029000440798006d
:1019b4008e007800c08a2000dc05070074218000b6
:1019c40068026200e00f520001003a0088c0a800db
:1019d4000080fa00000006000000fa0025048000e0
:1019e4000408200004826200e00f52000700320065
:1019f40084e0a900144e80000402e800144e88001c
:101a0400144e8000b45688008829a8000080fa008b
:101a1400000006000000fa0014408000e00f5200ad
:101a240005003a00444c800061026200e00f52005d
:101a3400010032009bff0700444c800061426200b9
:101a44000482fb00144088000080fa0000000600b5
:101a54000200fa00000f7800449c20009e027800e7
:101a640095029000050a78001e027800a4029000f6
:101a7400449c2000150298001e027800b4029000d5
:101a8400449c200025029800449c20008082eb00a6
:101a9400350298000060fe008829a9000002eb00ce
:101aa400540888000080fa00000006000000fa00d4
:101ab400043a800061026200e00f520004003a0020
:101ac400043a800062026200e00f52000500320016
:101ad4000002eb00a45688000002eb00b456880014
:101ae40003003700a45680000402e800a4568800ce
:101af400449c20008002eb00050a7800449c2000ee
:101b04001500200015029800449c200025002000a8
:101b140025029800449c20003500200035029800de
:101b24004007a9004027a90040c7a90040e7a90031
:101b340041e7a9004087a90041c7a900a456800035
:101b4400044b8800b4568000144e880090c0a9004d
:101b540088c0a900340580000480a1000490a1007d
:101b640004a0a000340588000002eb00b422880021
:101b74005804a8005824a8005844a80058a4a80051
:101b840040802000ba050700c08a2000b80507007d
:101b94000440200084228800000000008522800088
:101ba400040e20008482620004082000848f520006
:101bb400faff3a001400200094228800a43920007f
:101bc400a422880014802100841f8800d487210067
:101bd400c41f88000002eb00041e8800048020005b
:101be400441e880084032100841e8800c47f2100d1
:101bf400c41e8800c47f2100041f8800c47f210004
:101c0400441f880014002000742188002400200050
:101c1400f42088003400200074208800040c200084
:101c240024218800040c2000a4208800040c200037
:101c3400242088000002eb00742288000002eb00dc
:101c4400f42188000002eb008422880000000000d8
:101c540085228000040e200004826200e00f5200fe
:101c6400fbff3a0090c0a80054fb250084088800bc
:101c740024f42000640888000002eb003408880083
:101c840084c0a9008cc0a90011e1a800d4fb2500e0
:101c940094088800546222007408880084e0a90033
:101ca4008ce0a90013e1a8000002eb00a44c88001a
:101cb40004d82800b44c8800441f2000c44c880079
:101cc40014042000d44c880044062000e44c88000e
:101cd4000080fa00000006003600f800809fbe0075
:101ce400829fbe00849fbe00869fbe00889fbe0068
:101cf4004400f8004200f8000a00fa0088c0a90075
:101d0400944d80000402e800944d88007522800000
:101d14000408200004826200e00f52002400320014
:101d24007422800061026200e00f52000f003a004a
:101d3400644d80000402e800644d8800e144200002
:101d44000e0078002802800019028000e3040700d6
:101d540019028800280288003e029000a44a8800e4
:101d64004e029000b44a880010003700744d800081
:101d74000402e800744d8800e14420000e0078005d
:101d84002802800019028000d40407001902880088
:101d9400280288000e0078002802800019028000c2
:101da4002bff070019028800280288005604a900a6
:101db400f52180000408200004826200e00f520034
:101dc4000b003200844d80000402e800844d88003a
:101dd400e143200040802000280280001902800096
:101de400a104070019028800280288005624a900cb
:101df4007421800068026200e00f520014003a006f
:101e0400c08a200028028000190280009104070083
:101e1400190288002802880000027800e00f5200ae
:101e24000b003200e1422000c08a2000280280001a
:101e340019028000ee0407001902880028028800b5
:101e44005644a900d44d80000402e800d44d880013
:101e5400b52280000402200004826200e00f5200d8
:101e640005003200344d80000402e800344d88003f
:101e740056a4a9000700370084168000700262008f
:101e8400e00f520002003200d082a90001003700a6
:101e9400d082a800d4228000244d88000080fa005b
:101ea4004200f9004400f9004f04be004f03be0095
:101eb4004f02be004f01be004f00be003600f900c5
:101ec400004006001200fa0010079800210798004d
:101ed40032079800034f980054079800650798004c
:101ee40076079800070f98000002eb00040f7800b3
:101ef4001e0390006022b800048bbe001e029000f6
:101f04008002eb00250298001e0290008002eb0084
:101f1400350298001e029000ae029000450298001f
:101f24001e029000be029000550298000e4a9000d6
:101f3400ef4f52000d0036001e02900005002800ed
:101f4400650298001e0290008002eb007502980062
:101f54001e02900005002800050a98001e02900049
:101f64008002eb00150a98001f0037000e4a90000b
:101f74000482fb000404b0004222dd00040f780058
:101f84001e0078006b0307000002780084027800ca
:101f94001e029000750298001e02e80004007800fa
:101fa40064030700000278009e029000e402980097
:101fb4001e82e800040078005e0307000002780037
:101fc400840278001e029000150a98009e02780090
:101fd4006382420004007800560307000002780080
:101fe4009e029000840a98001e029000de02900077
:101ff400250a98001e029000ee029000350a98000f
:102004001e029000fe029000550a98001e029000e5
:102014008e0a9000650a98001e0290008002eb0070
:10202400750a98001e0290008002eb0005129800c9
:102034001e029000ceba9700151298000080fa0094
:10204400000006001000fa0010079800210798000d
:1020540032079800034f98005407980065079800ca
:10206400760798000002eb00040f78001e0290002f
:102074008002eb00250298001e029000de02900010
:10208400350298001e029000ee029000450298006e
:102094001e029000fe029000550298001e0290005d
:1020a400ae029000650298001e029000be029000ed
:1020b400750298000e4a9000e74f52000d0036005a
:1020c4001e02900005002800050a98001e029000d8
:1020d4008002eb00150a98001e02900005002800fb
:1020e400250a98001e0290008002eb00350a980031
:1020f4001f0037000e4a90000482fb000405b00064
:102104004222dd00040f78001e0078000903070056
:1021140000027800840278001e029000150a9800dc
:102124001e02e800040078000203070000027800a1
:102134009e029000840a98001e82e8000400780041
:10214400fc02070000027800840278001e0290005e
:10215400350a98009e0278006382420004007800e9
:10216400f4020700000278009e029000a40a98007e
:102174000080fa00000006000400fa00100798002e
:102184001e029000740390001e029000e40290006e
:102194001e02900014027800060178008500780081
:1021a400040078003205070000027800040f78006c
:1021b4001e029000940a90001e029000040a9000ef
:1021c40005017800840078001e00780013050700dc
:1021d40000027800040f78001e029000b40a9000f8
:1021e4001e029000240a9000050178008400780003
:1021f4001e0078000905070000027800040f78002b
:102204001e02900024029000e00f520003003a00e6
:102214001e029000d4029000050f78001e02900068
:102224009e027800150298000080fa000000060063
:102234000400fa00100798001e029000140b90008e
:102244001e029000840a90001e0290002402900056
:10225400060178008500780004007800ef04070088
:1022640000027800040f78001e029000f40290002f
:102274001e0290006402900005017800840078003a
:102284001e007800e504070000027800040f7800bf
:102294001e029000d40290001e029000440290009e
:1022a40005017800840078001e007800f00407001f
:1022b40000027800040f78001e0290009e0278004d
:1022c400350298000080fa00000006000400fa00bd
:1022d400000f7800110798001e027800b4029000e5
:1022e4001e029000848f5200030031001e02780009
:1022f400b4029000150798001e027800c4029000f2
:102304001e029000848f5200030036001e027800e3
:10231400c4029000150798001e0278009e029000e7
:10232400050a78000080fa00000006000200fa00a6
:10233400000f78001e027800b40290001e0278009c
:10234400240a9000848f52000200360014002000fa
:10235400010037000002eb00040078000080fa005e
:10236400000006000200fa00000f78001e02780048
:10237400b40290001e027800340a9000848f520048
:102384000200310014002000010037000002eb00bd
:10239400040078000080fa00000006000400fa003f
:1023a400100798001e029000d40a90001e029000ac
:1023b400440a90000001eb008500780004007800d6
:1023c4009604070000027800040f78001e029000b3
:1023d400640a90009e0f5200030036001e02900013
:1023e400e40a9000050f780004f02f009e025200ca
:1023f4001e029000440a9000848f520004003600ac
:102404001e029000440a90001e0f42000200370092
:1024140004f02f00040f78001e0290003402900094
:102424009e0f5200060036001e029000740a9000af
:102434008402e8001e029000750a98000900370023
:102444001e029000740a9000e00f52000500320052
:102454001e029000740a90008402e9001e0290009b
:10246400750a98001e029000f40a90001e02900063
:1024740014129000848f52000f0039001e02900045
:10248400f40a90001e02900014129000040242000c
:10249400848f5200060039001e029000141290002e
:1024a40004024200840278001e029000750a98001b
:1024b40014002000010037000002eb000400780043
:1024c4000080fa00000006000400fa0010079800db
:1024d4001e029000d40a90001e029000440a90004c
:1024e4000001eb0085007800040078004b0407002d
:1024f40000027800040f78001e029000640a900025
:102504009e0f5200030036001e029000e40a900061
:10251400050f78001e029000440a90009e0f52009e
:10252400040036001e029000440a90001e0f520060
:10253400020037000002eb00040f78001e02900036
:10254400340290009e0f5200060031001e029000db
:10255400041290008402e8001e0290000512980004
:10256400090037001e02900004129000e00f520090
:10257400050032001e029000041290008402e9005b
:102584001e029000051298001e0290008412900012
:102594001e02900014129000848f52000f00390024
:1025a4001e029000841290001e02900014129000eb
:1025b40004024200848f5200060039001e0290007b
:1025c4001412900004024200840278001e0290005b
:1025d4000512980014002000010037000002eb00ef
:1025e400040078000080fa00000006000000fa00f1
:1025f400a22028000101200000012000f1010700b1
:10260400a22028000101200010012000ed01070094
:10261400a22028000101200020012000e901070078
:10262400a22028000101200030012000e50107005c
:10263400a22028000101200040012000e101070040
:10264400a22028000101200050012000dd01070024
:10265400a22228000101200060012000d901070006
:10266400a22228000101200070012000d5010700ea
:102674000080fa00000006001400fa0040479800a9
:1026840031079800420798005307980064079800a0
:1026940075079800060f9800170f98003e029000e7
:1026a400f401b300340798000e0b90009e0b9000c9
:1026b400463add00ca32de00850272004632dd0091
:1026c4006e019000fe0190000400be0040f7070078
:1026d4000002be00048fbe0004202000050020007c
:1026e4001e03be00840f5300858f5b0003003e0071
:1026f4001400200054568800320037003480200033
:10270400050020001e03be00840f5300858f5b006c
:102714000d003e0044002000545688001e02be00f6
:102724004e2bdd004222de0004027300c22ade00ca
:10273400048fbe00be029000e4ff2f0004826200fa
:10274400340798001f003700f40022000500200021
:102754001e03be00840f5300858f5b000d003e00f6
:1027640004012000545688001e02be004c2bdd00dc
:102774004422de0004027300c42ade00048fbe007b
:10278400be029000d4ff2f00048262003407980038
:102794000c00370004042000545688001e02be00ba
:1027a4004a2bdd004622de0004027300c62ade0046
:1027b400048fbe00be029000c4ff2f00048262009a
:1027c40034079800041c2000050020001e03be00ee
:1027d400840f5300858f5b00080036005456800038
:1027e4004322dd0054568800be02900034fe2f00c0
:1027f4000482620034079800570037000418200050
:10280400050020001e03be00840f5300858f5b006b
:1028140009003600545680006722b900040278008b
:1028240054568800be02900074fe2f000482620099
:1028340034079800480037000414200005002000e5
:102844001e03be00840f5300858f5b000900360011
:10285400545680006622b900040278005456880059
:10286400be029000b4fe2f00048262003407980078
:102874003900370004102000050020001e03be00ac
:10288400840f5300858f5b00090036005456800086
:102894006522b9000402780054568800be029000f4
:1028a400f4fe2f0004826200340798002a003700e7
:1028b400040c2000050020001e03be00840f5300fa
:1028c400858f5b0008003600545680004222dd00ec
:1028d40054568800be02900034ff2f000482620028
:1028e400340798001c00370004082000050020006d
:1028f4001e03be00840f5300858f5b000900360061
:10290400545680006322b9000402780054568800ab
:10291400be02900074ff2f00048262003407980006
:102924000d00370004042000050020001e03be0033
:10293400840f5300858f5b000700360054568000d7
:102944000402420054568800be029000b4ff2f00d7
:102954000482620034079800545680004222dd004d
:10296400545688004e429000e14f520004003a0051
:102974003e029000141188005e0390000611880046
:102984004e429000e24f520004003a003e02900092
:10299400441188005e039000361188000080fa001c
:1029a400000006000c00fa0040079800214f980030
:1029b4000042eb00044f78002e4a9000e14f520091
:1029c40054003a008500a9004e02900024118800aa
:1029d4000002eb0034079800180037003e02900014
:1029e4000402e8003407980054568000be029000a8
:1029f400848f52000300360034c0b300044f7800c3
:102a04000e003700051180000404200004826200d7
:102a1400e00f52000300320044c0b300044f7800ba
:102a2400060037000411800062026200e00f5200c9
:102a340002003a0014c0b300044f78001e4278002c
:102a4400e04f5200e5ff3200200037003e029000c4
:102a54000402e8003407980054568000be02900037
:102a6400848f52000300360034c0b300044f780052
:102a7400160037000511800004042000048262005f
:102a8400e00f52000300320044c0b300044f78004a
:102a94000e00370025048000041020000482620028
:102aa400e00f52000300320024c0b300044f78004a
:102ab400060037000411800061026200e00f52003a
:102ac4000200320024c0b300044f78001e42780094
:102ad400e14f5200ddff32001e427800e24f520007
:102ae40005003a0024118000050020001407980016
:102af4002507980007003700040020001511210065
:102b04001407980025079800645680000402e80022
:102b1400645688002e4a9000e24f52004d003a005d
:102b24008740a9004e029000541188000002eb0077
:102b340034079800180037003e0290000402e800b1
:102b44003407980054568000be029000848f5200cf
:102b54000300360034c0b300044f78000e00370081
:102b6400351180000404200004826200e00f52004a
:102b74000300320044c0b300044f7800060037005d
:102b84003411800062026200e00f520002003a0039
:102b940014c0b300044f78001e427800e04f520086
:102ba400e5ff3200190037003e0290000402e800fd
:102bb4003407980054568000be029000848f52005f
:102bc4000300360034c0b300044f78000f00370010
:102bd400351180000404200004826200e00f5200da
:102be4000300320044c0b300044f780007003700ec
:102bf400350480000440200004826200e00f52008b
:102c04000200320024c0b300044f78001e42780052
:102c1400e14f5200e4ff32001e427800e24f5200be
:102c240005003a00541180000500200014079800a4
:102c34002507980007003700040020001511210023
:102c44001407980025079800745680000402e800d1
:102c5400745688001e029000ae0290000400be006c
:102c64000080fa00000006000c00fa00000f780053
:102c74001207980023079800340798004507980026
:102c8400214f9800364f98000080fa00000006009b
:102c94000800fa002007980031079800ae0290005f
:102ca400f47f2000848f520020003e0004002f0097
:102cb400f5072000048fbe00053b800004002800b7
:102cc40004826200e00f5200fbff3a002e029000e3
:102cd40004024200050020003e014200ae814a0089
:102ce4000202be00220020000400be0090f507008e
:102cf400053b80000400280004826200e00f5200bb
:102d0400fbff3a003e0390002e02900004024200b2
:102d1400050020003e014200ae814a000202be00ce
:102d2400060178000400be009af507000080fa004e
:102d3400000006000200fa00000f7800f67f200071
:102d44009e037800868f53001a003e00073b8000e4
:102d54000600280006836300e00f5300fbff3a00df
:102d64001e037800060343006133b90004002f00fa
:102d7400f50f20008600d0000401d000028240003c
:102d84004220a80085824b004200a9004220ae00e8
:102d94004200a8000482d300a601800085037800c5
:102da400a70188000402780014027800a6018800b4
:102db400010037000082eb00040078000080fa0074
:102dc400000006002a00fa00201798003117980026
:102dd400421798004e1290001402780024079800bd
:102de4004e1290000482e800140278003407980020
:102df4004e129000640242001402780044079800c6
:102e04004e129000660242001402780054079800a3
:102e14004e12900068024200140278006407980081
:102e24004e1290006a02420014027800740798005f
:102e34004e1290006c02420014027800040f9800b5
:102e44004e1290006e02420014027800140f980093
:102e54004e1290007002420014027800240f980071
:102e64004e1290007202420014027800340f98004f
:102e74004e1290007402420014027800440f98002d
:102e84004e1290007602420014027800540f98000b
:102e94004e1290007802420014027800640f9800e9
:102ea4004e1290007a02420014027800740f9800c7
:102eb4004e1290007c02420014027800041798001d
:102ec4004e1290007e0242001402780014179800fb
:102ed400ae129000f4072000848f520019003e00c7
:102ee40004002f00f5072000048fbe002e1290006e
:102ef4004522dd00050020001e0f42005e974a00b7
:102f0400053b80000400280004826200e00f5200a8
:102f1400fbff3a00020220001e00be0004f5070079
:102f2400053b80000400280004826200e00f520088
:102f3400fbff3a0064024700040178001e00be0053
:102f44001af507000080fa00000006000a00fa00e3
:102f54002007980031079800420798002e0390003c
:102f64004433dd0016079800073b80000600280064
:102f740006836300e00f5300fbff3a003e0390001a
:102f8400e00f53002b0032003e039000f00f53007b
:102f9400020036000601200036079800ae039000b8
:102fa400f6072000868f530022003e000003eb004a
:102fb400060f78001b0037001e0378000603430049
:102fc400ce039000068043001e0390001e034300be
:102fd400060343006133b90004002f00f50f2000fd
:102fe4008600d0000401d000028340004220a800e3
:102ff40085834b004200a9004220ae004200a80095
:103004000683d300a101800007017800a201880093
:103014000603780016037800a101880006087800ea
:103024001e0fe8003e0390009e037800868f530035
:10303400e1ff39000080fa00000006001001900052
:1030440090007800010051000000e900f000b20097
:1030540000000600100190009000780002805000eb
:10306400f000b200000006001170a6001a0037003c
:10307400e40140009309e800900190001001e80089
:10308400f200b2000310e1001000320010017800d9
:103094006a11b800e8014000828141006e8150004d
:1030a4009219780066014100b2197800b2197800cb
:1030b400b2197800b21978001001e800f200b200e9
:1030c40002087800e60140009309e900e6014000a7
:1030d4009309e8001170a100000006001170a60019
:1030e400090037006e815000121878006601410013
:1030f40032187800321878003218780032187800c4
:103104001170a10008003700827f210002187800a6
:1031140002002000021878000218780002187800d3
:10312400021878003100370000000600e401400076
:103134009309e800900190001001e800f200b20049
:103144000310e1000e003200100178006a11b8008b
:10315400e801400082814100b1197800b11978007a
:10316400b1197800b1197800b11978001001e8009c
:10317400f200b20002087800e60140009309e90079
:10318400e60140009309e8000000060010019000e9
:10319400900178000310e10008003a00837f2100c9
:1031a40083187800030020008318780083187800bf
:1031b40083187800831878000c0037006a11b8006f
:1031c4006801410000014100b2187800b21878008b
:1031d400b2187800b2187800b21878001001900084
:1031e4000201e800f200b20012009800000006009c
:1031f4001130a700130037001001900090017800ef
:103204000310e1000f0032006a11b80068014100a8
:1032140000014100ee815000b2097800e6814100ce
:10322400b2197800b2197800b2197800b21978008e
:103234001130a000100190000201e800f200b20079
:1032440012009800000006001130a1006e815000a9
:10325400300978006601410030197800301978008f
:1032640030197800301978001130a00000000600f1
:103274000018eb000018eb000018eb000008eb004e
:10328400000006000200fa00000f78001e02780019
:10329400b4029000240290000400be006100070004
:1032a4001e0278001402be000400be005d00070088
:1032b4001e027800b4029000240290000400be00b4
:1032c4008c0007001e0278001402be000400be0039
:1032d400880007001e027800240b9000b40b9000b5
:1032e4001e027800940a9000040a90001e007800e0
:1032f400f00190001e007800600190001e0078002c
:10330400d00090001e00780000489000dafc07000e
:103314000080fa00000006000c00fa003007980054
:103324004107980052079800de029000f4ff200045
:103334000482620054079800ce02900004002f001b
:103344000482620044079800ce0290005e0290005e
:1033540005027200440798000042eb00044f780015
:103364003e0290001402be000400be003e000700ae
:103374003e029000044a9000844078004e00900081
:1033840088fd07000002be00140798002507980076
:103394001e039000ae0390000400200015112100cc
:1033a400840f5300858f5b0002003a0014c0b30001
:1033b400044f78003e0290001402be000400be00d8
:1033c400180007003e029000b4029000240290000e
:1033d4000400be00240007000000000000000000fc
:1033e40000000000000000003e029000b4029000c3
:1033f400240290000400be000a0007001e42780068
:10340400e04f520003003200c45680000402e8007a
:10341400c45688001e427800044078000080fa00f8
:103424000000060001600100c422b700000006008d
:10343400ca22b70000000600d022b7000000060030
:10344400d622b700000006000000000000000600bd
:10345400e222b70000000600e822b70000000600e0
:1034640000000000000006000080ea000160010086
:10347400c422b60000000600ca22b60000000600fe
:10348400d022b60000000600d622b60000000600d6
:103494000000000000000600e222b6000000060062
:1034a400e822b6000000060000000000000006004c
:1034b40001600100c022b70000000600c622b70068
:1034c40000000600cc22b70000000600d222b7009c
:1034d400000006000000000000000600de22b70025
:1034e40000000600e422b70000000600000000000f
:1034f400000006000080ea0001600100c022b6005e
:1035040000000600c622b60000000600cc22b60069
:1035140000000600d222b6000000060000000000f1
:1035240000000600de22b60000000600e422b60019
:103534000000060000000000000006000400fa007d
:10354400100798001e029000c4029000050f780036
:103554009e02780004202700848f52000c003a0059
:103564001e0290002402900084007800c0a820006d
:1035740056fb07001e02900014029000840078009d
:1035840040aa200051fb07008849a9000400370025
:10359400b44d80000402e800b44d8800000000002f
:1035a4000080fa00000006000000fa005452800077
:1035b40077538000165080003551800087017800d1
:1035c4000601780085007800c0072000caf80700cb
:1035d4000080fa00000006000000fa002655800072
:1035e400655480000002eb00860178000001eb00c6
:1035f40085007800d0072000bff807000080fa009b
:10360400000006000000fa000080fa000000060036
:103614000000fa000080fa00000006000200e0004a
:1036240005003b00020040000800310000002000bb
:10363400d02aec00050037000200400003003900e6
:10364400f0ff2f00d02aec00000037000101b80081
:103654006218b8000100e00002003200f0ff2f0001
:10366400d02aec00cf10de0001007000000006003c
:103674000200e00005003b000200400008003100a9
:1036840000002000d22aec000500370002004000b0
:1036940003003900f0ff2f00d22aec0000003700ad
:1036a4000101b8007018b8000100e0000200320007
:1036b400f0ff2f00d22aec00cc10de0001007000d5
:0436c40000000600fc
:020000040000fa
:1036c800ca0a00000600000000000000d80a000036
:1036d8000200000000000000d00a00000400000002
:1036e80000000000cc090000fe00000000000000ff
:1036f80000080000cc0100000000000000000000ed
:020000040000fa
:10370800f03fb1000180b10006003500ee0309006a
:1037180000000000403fb1000180b100fbff3d0008
:103728001000b000203fb000020035000080090002
:08373800000000000000060083
:020000040000fa
:0200000400fffb
:10e000000000000000000000000000000000000010
:10e010000000000000000000000000000000000000
:10e0200000000000000000000000000000000000f0
:10e0300000000000000000000000000000000000e0
:020000040000fa
:0200000401f009
:04000000ecbb000055
:020000040000fa
:0200000401f009
:04000400f7ff000002
:020000040000fa
:0200000401f009
:040008004cff0000a9
:020000040000fa
:0200000401f009
:04000c00ffff0000f2
:020000040000fa
:0200000401f009
:04001000ffff0000ee
:020000040000fa
:0200000401f009
:04001400ffff0000ea
:020000040000fa
:0200000401f009
:04001800ffff0000e6
:00000001FF
