:020000040000fa
:080000000001040000000000f3
:020000040000fa
:10000800a8080000a8080000a8080000a808000028
:10001800a8080000a8080000a8080000a808000018
:10002800a8080000a8080000a8080000a808000008
:10003800a8080000a8080000a8080000a8080000f8
:10004800a8080000a8080000a8080000520700003f
:10005800a8080000a8080000a8080000a8080000d8
:10006800a8080000a8080000a8080000a8080000c8
:10007800a8080000a8080000a8080000a8080000b8
:10008800a8080000a8080000a8080000a8080000a8
:10009800a8080000a8080000a8080000a808000098
:1000a800a8080000a8080000a8080000a808000088
:1000b800a8080000a8080000c40e0000a808000056
:1000c800a8080000a8080000a8080000a808000068
:1000d800a8080000a8080000a8080000a808000058
:1000e800a8080000a8080000a8080000a808000048
:0800f800a8080000a8080000a0
:020000040000fa
:10010800a8080000a8080000a8080000a808000027
:10011800a8080000a8080000a8080000a808000017
:10012800a8080000a8080000a8080000a808000007
:10013800a8080000a8080000a8080000a8080000f7
:10014800a8080000a8080000a8080000520700003e
:10015800a8080000a8080000a8080000a8080000d7
:10016800a8080000a8080000a8080000a8080000c7
:10017800a8080000a8080000a8080000a8080000b7
:10018800a8080000a8080000a8080000a8080000a7
:10019800a8080000a8080000a8080000a808000097
:1001a800a8080000a8080000a8080000a808000087
:1001b800a8080000a8080000c40e0000a808000055
:1001c800a8080000a8080000a8080000a808000067
:1001d800a8080000a8080000a8080000a808000057
:1001e800a8080000a8080000a8080000a808000047
:0801f800a8080000a80800009f
:020000040000fa
:10020000efad20000e7f22000e01880000000000ec
:10021000000020000000e000020032000001200089
:10022000200288000c0007008093210001002000bc
:1002300011000700000020000000e0000200320072
:100240000000020000000000ba01020000000000ef
:100250000040da000000fe004440a9000000200039
:100260000000e0000300320000002000a001880030
:100270004440a8000000060091018800800078003a
:100280000000eb0015003700e280400032a0b4000f
:100290009101ba00e280400032a0b4009102ba009d
:1002a000e280400032a0b4000002eb00472bde00e9
:1002b000f507b200602ce10004003a000059eb00a1
:1002c0008301e900fdff3e00040037006128e100e2
:1002d000010032000082eb00040007001101ba00a7
:1002e0000200e000e8ff3a00000006003159ba00c1
:1002f0008301e9000c0032002159ba008301e900b2
:10030000080032000400e00003003a00e2804000f0
:1003100032a0b400f5ff370011d9ba008301e9001b
:10032000faff3a008100e800e180400032a0b4000a
:10033000000006006022b800060220000000d00085
:100340008180d2000482d2008582d2000000a00009
:100350000202520083825a0003003100020242006e
:1003600083824a000000a1000603e900f3ff3a007f
:040370000000060083
:020000040000fa
:100374000000fa0004012000545688000100070020
:10038400feff37000000fa005456800005032000e9
:10039400850f52002b00320005032000850f520008
:1003a40006003e00f00f52000e003200050220004d
:1003b400850f520013003200790037000505200034
:1003c400850f52005d00320005062000850f5200a3
:1003d4006900320005042000850f520046003200f7
:1003e4006f003700cb0107008609a8008649a800e2
:1003f4000002eb00145688000402200054568800c2
:100404006a0037008609a8006a0007000800370060
:100414007c00070053030700344c80006402620030
:10042400e00f520002003a000403200054568800f2
:100434005556800004022000848f5200f4ff3200dd
:100444005a003700145680000402e800145688004d
:100454008609a8000002eb00345688005f000700fc
:1004640020003700670007003e0307003556800070
:10047400743e2000848f52000f0036000002eb000f
:1004840014568800843e2000345688008498200046
:1004940014027800e00f520005003200249c200072
:1004a4001402780061026200e00f52000200320080
:1004b400040420005456880024568000e00f5200a3
:1004c4000800320014568000e50f520003003e007d
:1004d400040520005456880002003700040620005a
:1004e400545688005556800004032000848f52001f
:1004f400dcff32002d0037008609a9008498200013
:100504008002eb00050a7800070037003d00070071
:100514001403070024568000e00f5200020032004a
:100524000405200054568800555680000404200019
:10053400848f5200f5ff32001c0037001d000700b5
:100544008609a800070037002e00070005030700ee
:1005540024568000e00f520002003a0004022000fa
:10056400545688005556800004052000848f52009c
:10057400f5ff32000d0037000e0007008609a800c1
:100584008769a800020037001e000700f502070073
:100594005556800004062000848f5200faff320072
:1005a4000406200054568800000000000080fa0071
:1005b400000006000000fa000002eb0094548800da
:1005c4000002eb0054558800d642a900d662a90067
:1005d400d622a9000080fa00000006000000fa00fc
:1005e40014002000945488001400200054558800fe
:1005f400d642a800d662a800d622a8000080fa003d
:10060400000006000000fa004516800004002800df
:1006140004826200e00f5200030032008989a800be
:1006240014002000245688001516800004002100c0
:1006340004826200e00f52000300320089a9a8007e
:10064400140020002456880035048000040420008f
:1006540004826200e00f52002c01320086c0a9001f
:1006640014568000344b880024568000444b880084
:1006740034568000544b880054568000644b8800e4
:10068400249c200014027800744b88005556800086
:1006940004032000848f520003003a003456800083
:1006a4000402e80034568800445680000402e8003e
:1006b400445688004556800014032000848f52005d
:1006c4000a0036000002eb004456880045178000fb
:1006d4000400240004826200e00f52000200320091
:1006e400e9c2a90001003700e9c2a8000002eb003a
:1006f400b44a880075568000845680000482420003
:10070400c44a8800b5568000c45680000482420062
:10071400e44a88000002eb00044b8800344c80005b
:1007240061026200e00f520002003200d062a900b0
:1007340001003700d062a8004516800004002100a3
:1007440004826200e00f5200020032008709a80010
:10075400010037008709a900451680000400220023
:1007640004826200e00f5200020032008729a800d0
:10077400010037008729a90015168000040028000d
:1007840004826200e00f5200020032008749a80090
:10079400010037008749a900b41680007002620086
:1007a400e00f520002003200d682a9000100370097
:1007b400d682a800a0a620008406070060a420001a
:1007c4008206070020a2200080060700e09f200088
:1007d4007e0607000002eb002456880045168000c0
:1007e4000400280004826200e00f5200030032007b
:1007f4008989a8001400200024568800151680005a
:100804000400210004826200e00f52000300320061
:1008140089a9a8001400200024568800249c2000e4
:100824001402780070026200e00f520004003200eb
:1008340089c9a80014002000245688000600370047
:10084400249c20001402780061026200e00f520030
:100854000100320089c9a900344c800062026200a0
:10086400e00f52000300320089e9a80014002000c0
:10087400245688005556800004042000848f5200ba
:10088400040032005556800004032000848f520077
:1008940073003a00345580001454880034558000a5
:1008a4000001eb0001002100040078005a0a07004f
:1008b40000027800f452880074548000d4518800f7
:1008c400745480000001eb00010021000400780052
:1008d400510a070000027800b450880020a22000ca
:1008e4007906070000027800e00f5200030032008e
:1008f4008809a800140020002456880020a22000a3
:100904007f06070000027800e00f52000300320067
:100914008829a800140020002456880020a2200062
:100924008506070000027800e00f52000300320041
:100934008849a800140020002456880020a2200022
:10094400c806070000027800e00f520003003200de
:100954008869a8001400200024568800e09f200025
:100964005906070000027800e00f5200030032002d
:100974008889a8001400200024568800e09f2000e5
:10098400b806070000027800e00f520003003200ae
:1009940088a9a8001400200024568800a0a62000de
:1009a4004906070000027800e00f520003003200fd
:1009b40088c9a8001400200024568800a0a620009e
:1009c4004f06070000027800e00f520003003200d7
:1009d40088e9a8001400200024568800a0a620005e
:1009e4005506070000027800e00f520003003200b1
:1009f4008909a8001400200024568800a0a620001d
:100a04009806070000027800e00f5200030032004d
:100a14008929a800140020002456880060a420001e
:100a24002906070000027800e00f5200030032009c
:100a34008949a800140020002456880060a42000de
:100a44008806070000027800e00f52000c00320014
:100a54008969a80014002000245688000800370083
:100a64000002eb00145488000002eb00f4528800ea
:100a74000002eb00d45188000002eb00b45088005f
:100a84005556800004042000848f52000400320074
:100a94005556800004032000848f520011003a0050
:100aa400e0a820009b050700445580004422de0096
:100ab4000401780001002100e09c2000e508070003
:100ac40060aa200093050700845480004422de00bd
:100ad4000401780001002900e09c2000dd080700e3
:100ae4000a003700845580000401780001002100c9
:100af400e09c2000d7080700c4548000040178005b
:100b040001002900e09c2000d20807000080fa00c0
:100b1400000006000000fa000002eb00f44c88001c
:100b240014002000e44c8800b4002000044d880028
:100b34000003eb00c551220004e2240080c1eb0055
:100b44000001eb009199210060aa200037050700fd
:100b54000003eb008002eb0004ee220080c1eb00f6
:100b64000001eb0091992100e0a820002f05070067
:100b740024032000841f7800077d2000067d2000c8
:100b84008002eb0004dc250080c1eb000001eb00d7
:100b940041c32000a0a62000d70407008f87e900e6
:100ba40024032000841f7800077d2000067d200098
:100bb4008002eb0004dc250080c1eb000001eb00a7
:100bc4002162200060a42000cb0407008f87e90085
:100bd40024032000841f7800077d2000067d200068
:100be4008002eb0084a9230080c1eb000001eb002c
:100bf40041c3200020a22000bf0407008f87e90022
:100c040024032000841f7800077d2000067d200037
:100c14008002eb0004dc250080c1eb000001eb0046
:100c240021622000e09f2000b30407008f87e900c1
:100c3400849820008002eb00050a78006498200064
:100c44008002eb00050a78000002eb00544c880097
:100c54000002eb00644c88000002eb00744c880036
:100c64000002eb00844c88000002eb00345588003d
:100c74000002eb0074548800340580000400a000d6
:100c84000410a0000420a000340588008220a900dc
:100c9400c404800004c0a10004d0a00004e0a000ab
:100ca400c404880004002f00041688000082eb00ae
:100cb400341688000002eb006416880004002c003f
:100cc4009416880084002000f4168800341620004e
:100cd40024178800d4f92d00040988000002eb00d1
:100ce400c408880086c0a900440d2300e4088800d5
:100cf400f4cf270004158800e4fd200014158800b3
:100d040084442e0024158800848e2e003415880017
:100d140034002f004415880004f020005415880086
:100d24008560a9008d60a800a1e2a8000400240049
:100d340065002000744e8800854e8800040220005f
:100d4400a5002000944e8800a54e880024c0b3005e
:100d540004007800d6e9b700f4532000c44e88009c
:100d64000002eb00d44e880004002a00e44e880000
:100d740004242400f5002000f44e8800054f880068
:100d84000468290085092000144f8800254f880035
:100d94000400280065002000344f8800454f880077
:100da40004022000a5002000544f8800654f8800ed
:100db400649d20001442780004007800eee9b70036
:100dc400c44e8000844f8800d44e8000944f880025
:100dd400e44e8000a44f8800f44e8000054f80004c
:100de400b44f8800c54f8800144f8000254f800001
:100df400d44f8800e54f8800e09c2000f0070700ee
:100e0400609e2000ee07070053030700002424001f
:100e1400f1002000280907000060fe00d082a8002d
:100e240000242400f1002000230907000060fe00d4
:100e3400d062a80000242400f10020001e0907004d
:100e44000060fe00d042a80000242400f10020002d
:100e5400190907000060fe00d022a8000024240025
:100e6400f1002000140907000060fe00e9e2a80078
:100e740000242400f10020000f0907000060fe0098
:100e8400e9a2a80000242400f10020000a090700b8
:100e94000060fe00e982a8000080fa00000006005d
:100ea400801f7800849fbe00869fbe000000fa0069
:100eb4008560a90004568000e00f52000300320050
:100ec4000002eb00045688009b00370015158000d3
:100ed4000408200004826200e00f5200290032005e
:100ee400565380006753800005148000441480002a
:100ef40004824200050020000602420087824a0064
:100f0400545388006553880016518000275180008f
:100f1400151480005414800004824200050020004f
:100f24000602420087824a00145188002551880035
:100f340036528000475280002514800064148000db
:100f440004824200050020000602420087824a0013
:100f54003452880045528800f64f800007508000c4
:100f640035148000741480000482420005002000bf
:100f74000602420087824a00f44f88000550880028
:100f84002800370056538000675380008514800082
:100f9400c4148000048242000500200006024200be
:100fa40087824a0054538800655388001651800094
:100fb4002751800095148000d414800004824200dc
:100fc400050020000602420087824a00145188006e
:100fd400255188003652800047528000a5148000b5
:100fe400e41480000482420005002000060242004e
:100ff40087824a003452880045528800f64f8000a8
:1010040007508000b5148000f4148000048242006c
:10101400050020000602420087824a00f44f88003f
:1010240005508800f45580000482e800f4558800d7
:10103400f5558000f40f2000848f52003e003600e6
:1010440054538000655380004c2bdd004422de00a5
:1010540004027300c42ade005453880065538800d8
:101064005453800065538000040278007453880050
:101074006022b800545388006553880034528000bd
:10108400455280004c2bdd004422de000402730034
:10109400c42ade003452880045528800345280004d
:1010a4004552800004027800545288006022b8003f
:1010b4003452880045528800145180002551800024
:1010c4004c2bdd004422de0004027300c42ade003f
:1010d4001451880025518800145180002551800046
:1010e40004027800345188006022b800145188004a
:1010f40025518800f44f8000055080004c2bdd0002
:101104004422de0004027300c42ade00f44f880087
:1011140005508800f44f80000550800004027800d8
:10112400145088006022b800f44f880005508800ed
:101134000002eb00f45588000080fa004f03be0063
:101144004f02be004f007800004006000000fa0085
:1011540000000000000000000000fe000080fa0013
:10116400004006000000fa002e000700a801070056
:10117400bc0007001c000700044e8000d44a88000d
:10118400d54a8000d44d800004824200d44a8800ad
:10119400d54a8000e44d800004824200d44a88008d
:1011a400d54a8000f44d800004824200d44a88006d
:1011b400d54a8000b44d800004824200d44a88009d
:1011c400d54a8000a44d800004824200d44a88009d
:1011d400d54a8000944d800004824200d44a88009d
:1011e4000080fa00000006000000fa0025048000d8
:1011f4000408200004826200e00f5200070032005d
:1012040084e0a900044e80000402e800044e880033
:10121400044e8000a45688008629a8000080fa00a5
:10122400000006000a00fa002d0037008e00780046
:1012340000802000a40607009e0278008407200096
:101244008482620084032000848f520004003200f0
:10125400b44d80000402e800b44d8800200037003b
:101264009e027800844b2100848f520003003a00d0
:101274000e0078008a000700190037009e027800eb
:10128400845b2100848f520003003a000e00780032
:101294003f000700120037009e027800846321009b
:1012a400848f520003003a000e007800b600070055
:1012b4000b0037009e027800c4c7210084826200bc
:1012c40084032100848f520005003a000e00780048
:1012d4002f000700944d80000402e800944d88001c
:1012e400008020002a06070000027800e00f520068
:1012f400ceff3a0074458000d44d8800344080000d
:10130400e44d88000080fa00000006000400fa00a2
:10131400000f7800110798001e02780094027800ec
:101324001e0290000403780005037300860278000f
:101334001e027800050a78000080fa00000006000a
:101344000400fa00000f7800110798001e027800cc
:10135400940278001e0290000482ea0084826200f3
:101364001e027800050a78000080fa0000000600da
:101374000400fa00000f7800110798001e02900084
:101384001e026200040078000080fa0000000600db
:101394000400fa00100798001e029000c402900096
:1013a400050f780004002f009e026200040027004d
:1013b400848f520004003200a44d80000402e8002f
:1013c400a44d880025003700f4ff20009e0262002f
:1013d400f40f2000848f520004003e00a44d8000ce
:1013e4000402e800a44d88001c003700f4ff20002c
:1013f4009e026200f42f2000848f520003003e00fe
:101404001e009000d606070014003700f4ff2000e9
:101414009e026200f43f2000848f520004003e00cc
:10142400a44d80000402e800a44d88000b0037009e
:10143400f4ff20009e026200f44f2000848f5200cb
:1014440003003e001e0090008400070003003700e4
:10145400a44d80000402e800a44d88000080fa0036
:10146400000006000000fa00544e8000e00f520015
:1014740005003a00344c800061026200e00f520023
:10148400010032007d000700344c8000614262009c
:101494000482fb00544e88000080fa00000006001d
:1014a4000400fa00100798001e029000c402900085
:1014b400050f780004002f009e026200040027003c
:1014c400848f520004003200a44d80000402e8001e
:1014d400a44d880013003700f4ff20009e02620030
:1014e400f4072000848f520003003e001e00900089
:1014f4000e0007000b003700f4ff20009e0262007c
:10150400f40f2000848f520003003e001e00900060
:10151400ae06070003003700a44d80000402e80073
:10152400a44d88000080fa00000006000400fa00c0
:10153400100798001e029000c4029000050f780066
:10154400f4ff20001e0f62001e027800e10f52001b
:1015540003003200e30f520008003200020037009b
:101564000000fe0006003700a44d80000402e800dd
:10157400a44d8800000000000100370000000000b6
:101584000080fa00000006000400fa00100798002a
:101594001e029000c4029000050f780004002f0082
:1015a4009e02620004002700848f5200040032006f
:1015b400a44d80000402e800a44d880025003700f3
:1015c400f4ff20009e026200f40f2000848f52007a
:1015d40004003e00a44d80000402e800a44d8800ed
:1015e4001c003700f4ff20009e026200f42f20004c
:1015f400848f520003003e001e0090007d06070009
:1016040014003700f4ff20009e026200f43f200023
:10161400848f520004003e00a44d80000402e800c0
:10162400a44d88000b003700f4ff20009e026200e6
:10163400f44f2000848f520003003e001e009000ef
:101644000a00070003003700a44d80000402e800ec
:10165400a44d88000080fa00000006000200fa0091
:10166400000f78000080fa00000006000200fa0073
:10167400000f78000080fa00000006000a00fa005b
:10168400c4832a00040f78006498200014027800b0
:101694001407980084982000140278002407980006
:1016a400040a2a0034079800040b2b00440798000e
:1016b400e14120000e007800b2050700344d80009f
:1016c4000402e800344d88000080fa00000006009f
:1016d4000200fa00000f7800249c20009e0278008b
:1016e40095029000050a78001e027800a40290007a
:1016f400249c2000150298001e027800b402900079
:10170400249c2000250298001e027800c402900048
:10171400249c2000350298000060fe008629a90060
:101724000002eb00540888000080fa000000060064
:101734001400fa0050079800610798007207980097
:10174400030f9800140f98005e0290006f0262006d
:1017540054079800de02900004072000050272007e
:10176400540798005e029000040242005407980057
:10177400de02900004602000050272005407980005
:101784005e0290004222dd00540798005e02900041
:10179400040f78009e02780004f02f000482620097
:1017a400040f78001e0278004322dd00040f780045
:1017b4009e0278005e039000f40f20000402630090
:1017c40005027200040f78001e0a900014079800a6
:1017d4000e0a9000240798007e02900034079800b7
:1017e4006e029000440798008e007800808a2000e2
:1017f4001d0507007421800068026200e00f52009a
:1018040001003a0088c0a8000080fa000000060029
:101814000000fa0025048000040420000482620011
:10182400e00f52009f00320084c0a900644e800083
:101834000402e800644e8800644e80006f02620077
:10184400644e88008dff0700644e80000500200070
:10185400f600200007002000860f5200878f5a00f0
:1018640090003e00046001000f00370018003700ac
:101874002000370029003700320037003b003700d2
:10188400440037004d003700560037005f00370032
:1018940068003700710037007a0037007b0037009a
:1018a4007c0037007d003700e44a8000d74a80007e
:1018b400c64a8000b54a8000870178000601780096
:1018c400850078000000eb0099ff070075003700e1
:1018d400064b8000f54a80000002eb008001eb001b
:1018e40006017800850078001000200090ff0700b2
:1018f4006c003700644b8000574b8000464b8000df
:10190400354b800087017800060178008500780057
:101914002000200086ff070062003700a44b8000ef
:10192400974b8000864b8000754b800087017800c0
:101934000601780085007800300020007cff070055
:1019440058003700e44b8000d74b8000c64b800022
:10195400b54b800087017800060178008500780087
:101964004000200072ff07004e003700244c800026
:10197400174c8000064c8000f54b800087017800ee
:1019840006017800850078005000200068ff0700f9
:1019940044003700444d8000374d8000264d8000c0
:1019a400154d8000870178000601780085007800d5
:1019b400800020005eff07003a003700844d80005d
:1019c400774d8000664d8000554d8000870178007a
:1019d40006017800850078009000200054ff07007d
:1019e40030003700c44d8000b74d8000a64d800004
:1019f400954d800087017800060178008500780005
:101a0400a00020004aff070026003700044e800093
:101a1400f74d8000e64d8000d54d800087017800a9
:101a24000601780085007800b000200040ff070020
:101a34001c003700c44c8000b74c8000a64c8000ca
:101a4400954c8000870178000601780085007800b5
:101a54006000200036ff070012003700044d8000ac
:101a6400f74c8000e64c8000d54c8000870178005c
:101a74000601780085007800700020002cff070024
:101a8400080037006c0507000600370076050700dc
:101a9400040037007f0507000200370080050700b7
:101aa400000000000080fa00000006000e00fa00aa
:101ab40050079800610798000002eb00040f7800bb
:101ac4006e029000240798005e02900014079800ac
:101ad400e14020000e007800aa040700444d800075
:101ae4000402e800444d88000080fa00000006006b
:101af4001000fa00500798006107980072079800d8
:101b0400c4032a00040f78007e0290001407980092
:101b14005e029000240798006e029000e10f5200cc
:101b240003003a0004102e00440798000200370016
:101b340014102e0044079800e14020000e007800a5
:101b440090040700444d80000402e800444d8800de
:101b54000080fa00000006000000fa00043a800049
:101b640061026200e00f520004003a00043a80006f
:101b740062026200e00f5200050032000002eb0036
:101b8400945688000002eb00a45688000300370036
:101b9400945680000402e80094568800249c200097
:101ba4008002eb00050a7800249c20001500200028
:101bb40015029800249c200025002000250298008e
:101bc400249c200035002000350298004007a9001d
:101bd4004027a90040c7a90040e7a90041e7a900a0
:101be4004087a90041c7a90094568000f44a8800a0
:101bf400a4568000044e880090c0a90088c0a900a3
:101c0400340580000480a1000490a10004a0a00079
:101c1400340588000002eb00b42288005804a800b0
:101c24005824a8005844a80058a4a8000080200004
:101c34005e040700808a20005c0407000440200042
:101c4400842288000000000085228000040e200009
:101c54008482620004082000848f5200faff3a0054
:101c6400140020009422880014392000a422880043
:101c740014802100841f8800d4872100c41f880099
:101c84000002eb00041e880004802000441e88002b
:101c940084032100841e8800c47f2100c41e8800a0
:101ca400c47f2100041f8800c47f2100441f8800d2
:101cb400140020007421880024002000f4208800ef
:101cc4003400200074208800040c200024218800a3
:101cd400040c2000a4208800040c20002420880088
:101ce4000002eb00742288000002eb00f42188005b
:101cf4000002eb008422880000000000852280009e
:101d0400040e200004826200e00f5200fbff3a0040
:101d140090c0a80054fb25008408880024f4200007
:101d2400640888000002eb003408880084c0a9001d
:101d34008cc0a90011e1a800d4fb250094088800f8
:101d4400546222007408880084e0a9008ce0a90091
:101d540013e1a8000002eb00944c880004d828008a
:101d6400a44c8800441f2000b44c880014042000b4
:101d7400c44c880044062000d44c88000080fa003b
:101d8400000006003600f800809fbe00829fbe005f
:101d9400849fbe00869fbe000a00fa0088c0a90086
:101da400844d80000402e800844d88007522800080
:101db4000408200004826200e00f52001800320080
:101dc4007422800061026200e00f52000b003a00ae
:101dd400544d80000402e800544d8800e144200082
:101de4000e0078008c0307003e029000844a8800ad
:101df4004e029000944a880008003700644d800029
:101e04000402e800644d8800e14420000e007800dc
:101e1400810307000e0078002dfe07005604a90078
:101e2400f52180000408200004826200e00f5200c3
:101e340007003200744d80000402e800744d8800ed
:101e4400e143200000802000560307005624a90027
:101e54007421800068026200e00f52000c003a0016
:101e6400808a20004a03070000027800e00f520035
:101e740007003200e1422000808a2000ab03070003
:101e84005644a900c44d80000402e800c44d8800f3
:101e9400b52280000402200004826200e00f520098
:101ea40005003200244d80000402e800244d88001f
:101eb40056a4a9000700370084168000700262004f
:101ec400e00f520002003200d082a9000100370066
:101ed400d082a800d4228000144d88000080fa002b
:101ee4004f03be004f02be004f01be004f00be00b4
:101ef4003600f900004006001200fa0010079800ae
:101f04002107980032079800034f9800540798005f
:101f14006507980076079800070f98000002eb0009
:101f2400040f78001e0390006022b800048bbe00ea
:101f34001e0290008002eb00250298001e02900011
:101f44008002eb00350298001e029000ae02900061
:101f5400450298001e029000be02900055029800af
:101f64000e4a9000e14f42000d003a001e0290001c
:101f740005002800650298001e0290008002eb0014
:101f8400750298001e02900005002800050a9800ba
:101f94001e0290008002eb00150a98000c00370026
:101fa4001e02900005002800650298001e029000a1
:101fb4008002eb00750298001e02900005002800c4
:101fc400050a98001e0290008002eb00150a980092
:101fd4001e029000de029000250a98001e02900066
:101fe400ee029000350a98001e029000fe02900056
:101ff400550a98001e0290008e0a9000650a980007
:102004001e0290008002eb00750a98001e029000e8
:102014008002eb00051298001e029000ceba9700d1
:10202400151298000080fa00000006001000fa0063
:10203400100798002107980032079800034f980072
:102044005407980065079800760798000002eb0093
:10205400040f78001e0290008002eb002502980015
:102064001e029000de029000350298001e029000cd
:10207400ee029000450298001e029000fe029000bd
:10208400550298001e029000ae029000650298006e
:102094001e029000be029000750298000e4a900045
:1020a400e14f42000d003a001e0290000500280096
:1020b400050a98001e0290008002eb00150a9800a1
:1020c4001e02900005002800250a98001e029000b8
:1020d4008002eb00350a98000c0037001e029000c5
:1020e40005002800050a98001e0290008002eb00fb
:1020f400150a98001e02900005002800250a980081
:102104001e0290008002eb00350a98000080fa005d
:10211400000006000400fa00100798001e02900058
:10212400740390001e029000e40290001e029000ce
:102134001402780006017800850078000400780015
:102144003504070000027800040f78001e02900096
:10215400940a90001e029000040a90000501780081
:10216400840078001e00780016040700000278003e
:10217400040f78001e029000b40a90001e02900022
:10218400240a900005017800840078001e0078007d
:102194000c04070000027800040f78001e0290006f
:1021a40024029000e00f520003003a001e02900047
:1021b400d4029000050f78001e0290009e02780061
:1021c400150298000080fa00000006000400fa00de
:1021d400100798001e029000140b90001e0290003d
:1021e400840a90001e0290002402900006017800e8
:1021f4008500780004007800f203070000027800ec
:10220400040f78001e029000f40290001e02900059
:102214006402900005017800840078001e007800b4
:10222400e803070000027800040f78001e02900003
:10223400d40290001e029000440290000501780030
:10224400840078001e007800f30307000002780081
:10225400040f78001e0290009e0278003502980058
:102264000080fa00000006000400fa00000f780065
:10227400110798001e027800b40290001e0290001c
:10228400848f5200030031001e027800b4029000d3
:10229400150798001e027800c40290001e029000e8
:1022a400848f5200030036001e027800c40290009e
:1022b400150798001e0278009e029000050a780017
:1022c4000080fa00000006000200fa00000f780007
:1022d4001e027800b40290001e027800240a9000c6
:1022e400848f5200020036001400200001003700e1
:1022f4000002eb00040078000080fa0000000600f1
:102304000200fa00000f78001e027800b402900068
:102314001e027800340a9000848f520002003100bb
:1023240014002000010037000002eb0004007800d4
:102334000080fa00000006000400fa00100798006c
:102344001e029000d40a90001e029000440a9000dd
:102354000001eb0085007800040078009903070071
:1023640000027800040f78001e029000640a9000b6
:102374009e0f5200030036001e029000e40a9000f3
:10238400050f780004f02f009e0252001e029000f8
:10239400440a9000848f5200040036001e0290000c
:1023a400440a90001e0f42000200370004f02f0080
:1023b400040f78001e029000340290009e0f520019
:1023c400060036001e029000740a90008402e800a1
:1023d4001e029000750a9800090037001e02900042
:1023e400740a9000e00f5200050032001e029000b3
:1023f400740a90008402e9001e029000750a980095
:102404001e029000f40a90001e0290001412900024
:10241400848f52000f0039001e029000f40a9000cd
:102424001e0290001412900004024200848f520095
:10243400060039001e0290001412900004024200ab
:10244400840278001e029000750a9800140020008f
:10245400010037000002eb00040078000080fa005d
:10246400000006000400fa00100798001e02900005
:10247400d40a90001e029000440a90000001eb0070
:1024840085007800040078004e03070000027800fd
:10249400040f78001e029000640a90009e0f520000
:1024a400030036001e029000e40a9000050f780035
:1024b4001e029000440a90009e0f52000400360051
:1024c4001e029000440a90001e0f520002003700c2
:1024d4000002eb00040f78001e029000340290000a
:1024e4009e0f5200060031001e029000041290005c
:1024f4008402e8001e0290000512980009003700cb
:102504001e02900004129000e00f520005003200f9
:102514001e029000041290008402e9001e02900042
:10252400051298001e029000841290001e02900072
:1025340014129000848f52000f0039001e02900084
:10254400841290001e0290001412900004024200b3
:10255400848f5200060039001e029000141290006d
:1025640004024200840278001e02900005129800c2
:1025740014002000010037000002eb000400780082
:102584000080fa00000006001400fa00404798009a
:102594003107980042079800530798006407980091
:1025a40075079800060f9800170f98003e029000d8
:1025b400f401b300340798000e0b90009e0b9000ba
:1025c400463add00ca32de00850272004632dd0082
:1025d4006e019000fe0190000400be0054f7070055
:1025e4000002be00048fbe0004202000050020006d
:1025f4001e03be00840f5300858f5b0003003e0062
:102604001400200064568800320037003480200013
:10261400050020001e03be00840f5300858f5b005d
:102624000d003e0044002000645688001e02be00d7
:102634004e2bdd004222de0004027300c22ade00bb
:10264400048fbe00be029000e4ff2f0004826200eb
:10265400340798001f003700f40022000500200012
:102664001e03be00840f5300858f5b000d003e00e7
:1026740004012000645688001e02be004c2bdd00bd
:102684004422de0004027300c42ade00048fbe006c
:10269400be029000d4ff2f00048262003407980029
:1026a4000c00370004042000645688001e02be009b
:1026b4004a2bdd004622de0004027300c62ade0037
:1026c400048fbe00be029000c4ff2f00048262008b
:1026d40034079800041c2000050020001e03be00df
:1026e400840f5300858f5b00080036006456800019
:1026f4004322dd0064568800be02900034fe2f00a1
:102704000482620034079800570037000418200040
:10271400050020001e03be00840f5300858f5b005c
:1027240009003600645680006722b900040278006c
:1027340064568800be02900074fe2f00048262007a
:1027440034079800480037000414200005002000d6
:102754001e03be00840f5300858f5b000900360002
:10276400645680006622b90004027800645688002a
:10277400be029000b4fe2f00048262003407980069
:102784003900370004102000050020001e03be009d
:10279400840f5300858f5b00090036006456800067
:1027a4006522b9000402780064568800be029000d5
:1027b400f4fe2f0004826200340798002a003700d8
:1027c400040c2000050020001e03be00840f5300eb
:1027d400858f5b0008003600645680004222dd00cd
:1027e40064568800be02900034ff2f000482620009
:1027f400340798001c00370004082000050020005e
:102804001e03be00840f5300858f5b000900360051
:10281400645680006322b90004027800645688007c
:10282400be02900074ff2f000482620034079800f7
:102834000d00370004042000050020001e03be0024
:10284400840f5300858f5b000700360064568000b8
:102854000402420064568800be029000b4ff2f00b8
:102864000482620034079800645680004222dd002e
:10287400645688004e429000e14f520004003a0032
:102884003e029000141188005e0390000611880037
:102894004e429000e24f520004003a003e02900083
:1028a400441188005e039000361188000080fa000d
:1028b400000006000c00fa0040079800214f980021
:1028c4000042eb00044f78002e4a9000e14f520082
:1028d40054003a008500a9004e029000241188009b
:1028e4000002eb0034079800180037003e02900005
:1028f4000402e8003407980064568000be02900089
:10290400848f52000300360034c0b300044f7800b3
:102914000e003700051180000404200004826200c8
:10292400e00f52000300320044c0b300044f7800ab
:10293400060037000411800062026200e00f5200ba
:1029440002003a0014c0b300044f78001e4278001d
:10295400e04f5200e5ff3200200037003e029000b5
:102964000402e8003407980064568000be02900018
:10297400848f52000300360034c0b300044f780043
:102984001600370005118000040420000482620050
:10299400e00f52000300320044c0b300044f78003b
:1029a4000e00370025048000041020000482620019
:1029b400e00f52000300320024c0b300044f78003b
:1029c400060037000411800061026200e00f52002b
:1029d4000200320024c0b300044f78001e42780085
:1029e400e14f5200ddff32001e427800e24f5200f8
:1029f40005003a0024118000050020001407980007
:102a04002507980007003700040020001511210055
:102a14001407980025079800745680000402e80003
:102a2400745688002e4a9000e24f52004d003a003e
:102a34008740a9004e029000541188000002eb0068
:102a440034079800180037003e0290000402e800a2
:102a54003407980064568000be029000848f5200b0
:102a64000300360034c0b300044f78000e00370072
:102a7400351180000404200004826200e00f52003b
:102a84000300320044c0b300044f7800060037004e
:102a94003411800062026200e00f520002003a002a
:102aa40014c0b300044f78001e427800e04f520077
:102ab400e5ff3200190037003e0290000402e800ee
:102ac4003407980064568000be029000848f520040
:102ad4000300360034c0b300044f78000f00370001
:102ae400351180000404200004826200e00f5200cb
:102af4000300320044c0b300044f780007003700dd
:102b0400350480000440200004826200e00f52007b
:102b14000200320024c0b300044f78001e42780043
:102b2400e14f5200e4ff32001e427800e24f5200af
:102b340005003a0054118000050020001407980095
:102b44002507980007003700040020001511210014
:102b54001407980025079800845680000402e800b2
:102b6400845688001e029000ae0290000400be004d
:102b74000080fa0000000600100190009000780028
:102b8400010051000000e900f000b200000006005e
:102b9400100190009000780002805000f000b20014
:102ba400000006001170a6001a003700e40140007e
:102bb4009309e800900190001001e800f200b200cf
:102bc4000310e10010003200100178006a11b8000f
:102bd400e8014000828141006e8150009219780022
:102be40066014100b2197800b2197800b219780070
:102bf400b21978001001e800f200b200020878006f
:102c0400e60140009309e900e60140009309e80069
:102c14001170a100000006001170a6000900370021
:102c24006e81500012187800660141003218780055
:102c34003218780032187800321878001170a10028
:102c440008003700827f210002187800020020006b
:102c54000218780002187800021878000218780028
:102c64003100370000000600e40140009309e80049
:102c7400900190001001e800f200b2000310e1009e
:102c84000e003200100178006a11b800e80140001b
:102c940082814100b1197800b1197800b119780026
:102ca400b1197800b11978001001e800f200b200ff
:102cb40002087800e60140009309e900e6014000bb
:102cc4009309e800000006001001900090017800cc
:102cd4000310e10008003a00837f21008318780084
:102ce4000300200083187800831878008318780084
:102cf400831878000c0037006a11b800680141009d
:102d040000014100b2187800b2187800b2187800b7
:102d1400b2187800b2187800100190000201e8009f
:102d2400f200b20012009800000006001130a70063
:102d34001300370010019000900178000310e100a7
:102d44000f0032006a11b80068014100000141001f
:102d5400ee815000b2097800e6814100b219780092
:102d6400b2197800b2197800b21978001130a000b5
:102d7400100190000201e800f200b2001200980075
:102d8400000006001130a1006e8150003009780067
:102d94006601410030197800301978003019780044
:102da400301978001130a000000006000018eb0074
:102db4000018eb000018eb000008eb000000060010
:102dc4000200fa00000f78001e027800b40290009e
:102dd400240290000400be00b40007001e02780024
:102de4001402be000400be00b00007001e027800fa
:102df400b4029000240290000400be00df0007002b
:102e04001e0278001402be000400be00db000700ae
:102e14001e027800240b9000b40b90001e02780070
:102e2400940a9000040a90001e007800f0019000bb
:102e34001e007800600190001e007800d000900011
:102e44001e00780000489000cffd07000080fa00c3
:102e5400000006000c00fa003007980041079800b3
:102e640052079800de029000f4ff20000482620002
:102e740054079800ce02900004002f0004826200e0
:102e840044079800ce0290005e0290000502720092
:102e9400440798000042eb00044f78003e02900083
:102ea4001402be000400be00910007003e02900020
:102eb400044a9000844078004e0090007dfe070094
:102ec4000002be0014079800250798001e03900016
:102ed400ae0390000400200015112100840f53005c
:102ee400858f5b0002003a0014c0b300044f7800e1
:102ef4003e0290001402be000400be006b000700f6
:102f04003e029000b4029000240290000400be002f
:102f1400770007000000000000000000000000002f
:102f2400000000003e029000b402900024029000d1
:102f34000400be005d0007001e427800e04f52000e
:102f440003003200e45680000402e800e4568800de
:102f54001e427800044078000080fa000000060059
:102f64000400fa00100798001e029000c4029000aa
:102f7400050f78009e02780004102700848f520009
:102f84000c003a001e029000240290008400780095
:102f9400e0a82000b4fc07001e0290001402900078
:102fa4008400780060aa2000affc07008649a900cd
:102fb40004003700a44d80000402e800a44d8800fa
:102fc400000000000080fa00000006000400fa007f
:102fd400100798001e029000c4029000050f7800ac
:102fe400a44d80000402e800a44d88000080fa008b
:102ff400000006000400fa00100798001e0290006a
:10300400c4029000050f7800f4ff20001e0f620038
:10301400a44d80000402e800a44d88000080fa005a
:10302400000006000000fa0014002000d4568800b6
:103034000080fa00000006000000fa0064528000dc
:103044008753800026508000455180008701780016
:103054000601780085007800c0072000b4f9070055
:103064000080fa00000006000000fa0036558000d7
:10307400755480000002eb00860178000001eb002b
:1030840085007800d0072000a9f907000080fa0025
:10309400000006000000fa000080fa0000000600ac
:1030a4000000fa000080fa00000006000160010040
:1030b400c422b70000000600ca22b70000000600c0
:1030c400d022b70000000600d622b7000000060098
:1030d4000000000000000600e222b7000000060025
:1030e400e822b7000000060000000000000006000f
:1030f4000080ea0001600100c422b600000006005e
:10310400ca22b60000000600d022b6000000060065
:10311400d622b600000006000000000000000600f1
:10312400e222b60000000600e822b6000000060015
:10313400000000000000060001600100c022b7008a
:1031440000000600c622b70000000600cc22b7002b
:1031540000000600d222b7000000060000000000b4
:1031640000000600de22b70000000600e422b700db
:103174000000060000000000000006000080ea00d5
:1031840001600100c022b60000000600c622b6009d
:1031940000000600cc22b60000000600d222b600d1
:1031a400000006000000000000000600de22b60059
:1031b40000000600e422b600000006000000000043
:1031c400000006000200e00005003b000200400091
:1031d4000800310000002000d62aec00050037006a
:1031e4000200400003003900f0ff2f00d62aec0053
:1031f400000037000101b8006218b8000100e000c7
:1032040002003200f0ff2f00d62aec00cf10de00bf
:1032140001007000000006000200e00005003b0011
:10322400020040000800310000002000d82aec0011
:10323400050037000200400003003900f0ff2f00b2
:10324400d82aec00000037000101b8007018b8005b
:103254000100e00002003200f0ff2f00d82aec0049
:0c326400cc10de0001007000000006002d
:020000040000fa
:1032700000080000ce01000000000000da0a000093
:103280000200000000000000cc0a00000600000060
:1032900000000000dc0a0000020000000000000046
:1032a000d60a00000400000000000000ce09000063
:0c32b000fe000000000000000000000014
:020000040000fa
:1032bc00f03fb1000180b10006003500ee030900bb
:1032cc0000000000403fb1000180b100fbff3d0059
:1032dc001000b000203fb000020035000080090053
:0832ec000000000000000600d4
:020000040000fa
:0200000401f009
:04000000ecbb000055
:020000040000fa
:0200000401f009
:04000400f7ff000002
:020000040000fa
:0200000401f009
:040008004cff0000a9
:020000040000fa
:0200000401f009
:04000c00ffff0000f2
:020000040000fa
:0200000401f009
:04001000ffff0000ee
:020000040000fa
:0200000401f009
:04001400ffff0000ea
:020000040000fa
:0200000401f009
:04001800ffff0000e6
:00000001FF
