:020000040000fa
:080000000001040000000000f3
:020000040000fa
:10000800760f0000760f0000760f0000760f0000d4
:10001800760f0000760f0000760f0000760f0000c4
:10002800760f0000760f0000760f0000760f0000b4
:10003800760f0000760f0000760f0000760f0000a4
:10004800760f0000760f0000760f0000e40d000028
:10005800760f0000760f0000760f0000760f000084
:10006800760f0000760f0000760f0000760f000074
:10007800760f0000760f0000760f0000760f000064
:10008800760f0000760f0000760f0000760f000054
:10009800760f0000760f0000760f0000760f000044
:1000a800760f0000760f0000760f0000760f000034
:1000b800760f0000760f0000fc070000760f0000a6
:1000c800760f0000760f0000760f0000760f000014
:1000d800760f0000760f0000760f0000760f000004
:1000e800760f0000760f0000760f0000760f0000f4
:0800f800760f0000760f0000f6
:020000040000fa
:10010800760f0000760f0000760f0000760f0000d3
:10011800760f0000760f0000760f0000760f0000c3
:10012800760f0000760f0000760f0000760f0000b3
:10013800760f0000760f0000760f0000760f0000a3
:10014800760f0000760f0000760f0000e40d000027
:10015800760f0000760f0000760f0000760f000083
:10016800760f0000760f0000760f0000760f000073
:10017800760f0000760f0000760f0000760f000063
:10018800760f0000760f0000760f0000760f000053
:10019800760f0000760f0000760f0000760f000043
:1001a800760f0000760f0000760f0000760f000033
:1001b800760f0000760f0000fc070000760f0000a5
:1001c800760f0000760f0000760f0000760f000013
:1001d800760f0000760f0000760f0000760f000003
:1001e800760f0000760f0000760f0000760f0000f3
:0801f800760f0000760f0000f5
:020000040000fa
:10020000efac20000e7f22000e01880000000000ed
:10021000000020000000e000020032000001200089
:10022000200288000c000700209621000100200019
:1002300011000700000020000000e0000200320072
:100240000000020000000000b608020000000000ec
:100250000040da000000fe004440a9000000200039
:100260000000e0000300320000002000a001880030
:100270004440a8000000060091018800800078003a
:100280000000eb0015003700e280400032a0b4000f
:100290009101ba00e280400032a0b4009102ba009d
:1002a000e280400032a0b4000002eb00472bde00e9
:1002b000f507b200602ce10004003a000059eb00a1
:1002c0008301e900fdff3e00040037006128e100e2
:1002d000010032000082eb00040007001101ba00a7
:1002e0000200e000e8ff3a00000006003159ba00c1
:1002f0008301e9000c0032002159ba008301e900b2
:10030000080032000400e00003003a00e2804000f0
:1003100032a0b400f5ff370011d9ba008301e9001b
:10032000faff3a008100e800e180400032a0b4000a
:10033000000006006022b800060220000000d00085
:100340008180d2000482d2008582d2000000a00009
:100350000202520083825a0003003100020242006e
:1003600083824a000000a1000603e900f3ff3a007f
:040370000000060083
:020000040000fa
:100374000000fa0030000700c7010700be000700b4
:100384001c000700044e8000d44a8800d54a80002f
:10039400d44d800004824200d44a8800d54a8000ab
:1003a400e44d800004824200d44a8800d54a80008b
:1003b400f44d800004824200d44a8800d54a80006b
:1003c400b44d800004824200d44a8800d54a80009b
:1003d400a44d800004824200d44a8800d54a80009b
:1003e400944d800004824200d44a88000080fa00c0
:1003f400000006000000fa00250480000408200024
:1004040004826200e00f52000900320084e0a90077
:10041400044e80000402e800044e8800044e80006c
:100424002456880011002000809820003c0007001a
:100434000080fa00000006000a00fa002d003700d0
:100444008e00780000802000210a07009e027800b8
:10045400840720008482620084032000848f520079
:1004640004003200b44d80000402e800b44d88005a
:10047400200037009e027800844b2100848f5200b4
:1004840003003a000e007800a600070019003700a8
:100494009e027800845b2100848f520003003a009e
:1004a4000e0078003f000700120037009e0278001b
:1004b40084632100848f520003003a000e00780008
:1004c400e50007000b0037009e027800c4c7210036
:1004d4008482620084032100848f520005003a0064
:1004e4000e0078002f000700944d80000402e800fd
:1004f400944d880000802000a709070000027800be
:10050400e00f5200ceff3a0074458000d44d8800bd
:1005140034408000e44d88000080fa0000000600aa
:100524000400fa00000f7800110798001e027800fa
:10053400940278001e0290000403780005037300ff
:10054400860278001e027800050a78000080fa000e
:10055400000006000400fa00000f7800110798005c
:100564001e027800940278001e0290000482ea00c1
:10057400848262001e027800050a78000080fa0076
:10058400000006000400fa00000f7800110798002c
:100594001e0290001e026200040078000080fa002f
:1005a400000006000400fa00100798001e029000e4
:1005b400c4029000050f780004002f009e02620020
:1005c40004002700848f520004003200a44d8000f0
:1005d4000402e800a44d880025003700f4ff200041
:1005e4009e026200f40f2000848f520004003e003b
:1005f400a44d80000402e800a44d88001c003700cc
:10060400f4ff20009e026200f42f2000848f520029
:1006140003003e001e009000530a07001400370038
:10062400f4ff20009e026200f43f2000848f5200f9
:1006340004003e00a44d80000402e800a44d88009c
:100644000b003700f4ff20009e026200f44f2000ec
:10065400848f520003003e001e009000b300070088
:1006640003003700a44d80000402e800a44d880074
:100674000080fa00000006000200fa00344c8000fa
:10068400630f62000a0007001e027800e00f5200a8
:1006940005003a00344c800063026200e00f52000f
:1006a40001003200a90007000080fa0000000600e3
:1006b4000000fa00454c8000844c800004826200f3
:1006c400e00f520004003200344c80000400a0000b
:1006d400344c880004003700354c8000e4ff2f00c0
:1006e40004826200344c8800354c8000744c8000d5
:1006f40004826200e00f520004003200344c800097
:100704000410a000344c880004003700354c8000ed
:10071400d4ff2f0004826200344c88000080fa0069
:10072400000006000400fa00100798001e02900062
:10073400c4029000050f780004002f009e0262009e
:1007440004002700848f520004003200a44d80006e
:100754000402e800a44d880013003700f4ff2000d1
:100764009e026200f4072000848f520003003e00c2
:100774001e0090000e0007000b003700f4ff20005d
:100784009e026200f40f2000848f520003003e009a
:100794001e009000110a070003003700a44d8000da
:1007a4000402e800a44d88000080fa00000006005e
:1007b4000400fa00100798001e029000c402900082
:1007c400050f7800f4ff20001e0f62001e0278005f
:1007d400050020005600200007002000860f52006c
:1007e400878f5a0014003e000460010005003700a2
:1007f40006003700100037001400370005003700ea
:10080400090037001c0a0700110037000000fe0031
:100814000f003700354c8000f4fe2f000482620084
:10082400344c88000a003700344c80000440a00097
:10083400344c880006003700a44d80000402e80010
:10084400a44d8800000000000100370000000000f3
:100854000080fa00000006000400fa001007980067
:100864001e029000c4029000050f780004002f00bf
:100874009e02620004002700848f520004003200ac
:10088400a44d80000402e800a44d88002500370030
:10089400f4ff20009e026200f40f2000848f5200b7
:1008a40004003e00a44d80000402e800a44d88002a
:1008b4001c003700f4ff20009e026200f42f200089
:1008c400848f520003003e001e009000de090700e2
:1008d40014003700f4ff20009e026200f43f200061
:1008e400848f520004003e00a44d80000402e800fe
:1008f400a44d88000b003700f4ff20009e02620024
:10090400f44f2000848f520003003e001e0090002c
:100914000a00070003003700a44d80000402e80029
:10092400a44d88000080fa00000006000200fa00ce
:10093400000f78000080fa00000006000200fa00b0
:10094400000f78000080fa00000006000a00fa0098
:10095400c4832a00040f780055ff0700344c80003c
:1009640014079800444c800024079800544c8000dd
:1009740034079800644c800044079800e14120004b
:100984000e00780001090700344d80000402e800dd
:10099400344d88000080fa00000006000200fa00ce
:1009a400000f78000060fe000002eb00540888008d
:1009b4000080fa00000006001400fa0050079800b6
:1009c4006107980072079800030f9800140f9800ad
:1009d4005e0290006f02620054079800de029000ed
:1009e4000407200005027200540798005e0290007c
:1009f4000402420054079800de02900004602000c4
:100a040005027200540798005e0290004222dd0045
:100a1400540798005e029000040f78009e0278004c
:100a240004f02f0004826200040f78001e02780094
:100a34004322dd00040f78009e0278005e039000dc
:100a4400f40f20000402630005027200040f780012
:100a54001e0a9000140798000e0a900024079800bc
:100a64007e029000340798006e02900044079800bc
:100a74008e007800808a20007d08070074218000a1
:100a840068026200e00f520001003a0088c0a8002a
:100a94000080fa00000006000000fa00250480002f
:100aa4000404200004826200e00f52009f00320020
:100ab40084c0a900144e80000402e800144e88008b
:100ac400144e80006f026200144e88009fff0700de
:100ad400144e800005002000f600200007002000ce
:100ae400860f5200878f5a0090003e000460010078
:100af4000f003700180037002000370029003700a6
:100b0400320037003b003700440037004d00370007
:100b1400560037005f003700680037007100370067
:100b24007a0037007b0037007c0037007d003700f7
:100b3400e44a8000d74a8000c64a8000b54a800053
:100b44008701780006017800850078000000eb003a
:100b540099ff070075003700064b8000f54a8000b6
:100b64000002eb008001eb000601780085007800ac
:100b74001000200090ff07006c003700644b8000d9
:100b8400574b8000464b8000354b8000870178002e
:100b940006017800850078002000200086ff070009
:100ba40062003700a44b8000974b8000864b800086
:100bb400754b800087017800060178008500780075
:100bc400300020007cff070058003700e44b800011
:100bd400d74b8000c64b8000b54b8000870178005e
:100be40006017800850078004000200072ff0700ad
:100bf4004e003700244c8000174c8000064c8000c7
:100c0400f54b8000870178000601780085007800a4
:100c14005000200068ff070044003700444d800066
:100c2400374d8000264d8000154d800087017800e7
:100c34000601780085007800800020005eff070030
:100c44003a003700844d8000774d8000664d800067
:100c5400554d8000870178000601780085007800f2
:100c64009000200054ff070030003700c44d80007e
:100c7400b74d8000a64d8000954d80008701780017
:100c84000601780085007800a00020004aff0700d4
:100c940026003700044e8000f74d8000e64d8000aa
:100ca400d54d800087017800060178008500780022
:100cb400b000200040ff07001c003700c44c800037
:100cc400b74c8000a64c8000954c800087017800ca
:100cd40006017800850078006000200036ff0700d8
:100ce40012003700044d8000f74c8000e64c800071
:100cf400d54c8000870178000601780085007800d3
:100d0400700020002cff070008003700df080700f0
:100d140006003700e908070004003700f20807005e
:100d240002003700f3080700000000000080fa000a
:100d3400000006000e00fa005007980061079800b2
:100d44000002eb00040f78006e0290002407980064
:100d54005e02900014079800e14020000e00780025
:100d64000a080700444d80000402e800444d88004e
:100d74000080fa00000006001000fa0050079800f6
:100d84006107980072079800c4032a00040f7800d2
:100d94007e029000140798005e02900024079800d9
:100da4006e029000e10f520003003a0004102e007e
:100db400440798000200370014102e0044079800de
:100dc400e14020000e007800f0070700444d800049
:100dd4000402e800444d88000080fa000000060088
:100de4000000fa00043a800061026200e00f520041
:100df40004003a00043a800062026200e00f5200ec
:100e0400050032000002eb00145688000002eb00db
:100e14002456880003003700145680000402e800ba
:100e2400145688004007a9004027a90040c7a9001c
:100e340040e7a90041e7a9004087a90041c7a900ec
:100e440014568000f44a880024568000044e88001a
:100e540090c0a90088c0a900340580000480a100c6
:100e64000490a10004a0a000340588000002eb0057
:100e7400b42288005804a8005824a8005844a800a4
:100e840058a4a80000802000ca070700808a200018
:100e9400c8070700044020008422880000000000e6
:100ea40085228000040e2000848262000408200051
:100eb400848f5200faff3a00140020009422880024
:100ec40014392000a422880014802100841f880083
:100ed400d4872100c41f88000002eb00041e880090
:100ee40004802000441e880084032100841e88009e
:100ef400c47f2100c41e8800c47f2100041f880011
:100f0400c47f2100441f880014002000742188003d
:100f140024002000f420880034002000742088007d
:100f2400040c200024218800040c2000a420880044
:100f3400040c2000242088000002eb0074228800a6
:100f44000002eb00f42188000002eb0084228800f8
:100f54000000000085228000040e2000048262004c
:100f6400e00f5200fbff3a0090c0a80054fb25009c
:100f74008408880024f42000640888000002eb0040
:100f84003408880084c0a9008cc0a90011e1a8001d
:100f9400d4fb250094088800546222007408880059
:100fa40084e0a9008ce0a90013e1a8000002eb0092
:100fb400944c880004d82800a44c8800441f2000c6
:100fc400b44c880014042000c44c8800940c200005
:100fd400d44c88000002eb00f44c88000002eb00c3
:100fe400e44c880094002000044d88000080fa003e
:100ff400000006003600f800809fbe00829fbe00fd
:10100400849fbe00869fbe000a00fa0088c0a90023
:10101400844d80000402e800844d8800752280001d
:101024000408200004826200e00f5200180032001d
:101034007422800061026200e00f52000b003a004b
:10104400544d80000402e800544d8800e14420001f
:101054000e007800f20607003e029000844a8800e1
:101064004e029000944a880008003700644d8000c6
:101074000402e800644d8800e14420000e0078007a
:10108400e70607000e00780044fe07005604a90096
:10109400f52180000408200004826200e00f520061
:1010a40007003200744d80000402e800744d88008b
:1010b400e143200000802000bc0607005624a9005c
:1010c4007421800068026200e00f52000c003a00b4
:1010d400808a2000b006070000027800e00f52006a
:1010e40007003200e1422000808a20001107070037
:1010f4005644a900c44d80000402e800c44d880091
:10110400b52280000402200004826200e00f520035
:1011140005003200244d80000402e800244d8800bc
:1011240056a4a900070037008416800070026200ec
:10113400e00f520002003200d082a9000100370003
:10114400d082a800d4228000144d88000080fa00c8
:101154004f03be004f02be004f01be004f00be0051
:101164003600f900004006000000fa0004012000e7
:10117400d455880001000700feff37000000fa0084
:10118400d455800005032000850f5200350032003d
:1011940005032000850f520006003e00f00f5200a8
:1011a4000b00320005022000850f52000c003200b3
:1011b4007400370005042000850f520044003200fb
:1011c40005052000850f52005c0032006d003700d9
:1011d400a101070004022000d45588006c003700e8
:1011e4004100200060982000cdfc07000110200081
:1011f40060982000cafc070067000700140037004d
:10120400790007005afc0700344c8000410020009c
:1012140004007800dbfc070000027800e00f5200b5
:1012240002003a0004032000d4558800344c8000a6
:101234001100200004007800d2fc070000027800ae
:10124400e00f52000200320004052000d45588004b
:10125400d555800004022000848f5200e8ff32003c
:101264004b0037004c000700140037005e000700f5
:101274003ffc0700344c800001102000040078007b
:10128400c0fc070000027800e00f520002003a00a0
:1012940004042000d4558800344c80001100200040
:1012a40004007800b7fc070000027800e00f520049
:1012b4000200320004052000d4558800d555800072
:1012c40004032000848f5200e8ff3200300037000e
:1012d4003b000700140037004300070024fc07000c
:1012e400344c80000110200004007800a5fc0700a5
:1012f40000027800e00f52000200320004032000d4
:10130400d4558800344c800011002000040078007b
:101314009cfc070000027800e00f5200020032003b
:1013240004052000d4558800d5558000040420000d
:10133400848f5200e8ff32001500370016000700c2
:101344000b0037002800070009fc0700344c80001c
:1013540011002000040078008afc070000027800d5
:10136400e00f520002003a0004022000d455880025
:10137400d555800004052000848f5200f1ff32000f
:101384000300370004052000d45588000000000045
:101394000080fa00000006000000fa000002eb00e2
:1013a400445488000002eb0004558800d642a9008a
:1013b400d662a900d622a9000080fa000000060027
:1013c4000000fa0014002000445488001400200097
:1013d40004558800d642a800d662a800d622a800e8
:1013e4000080fa00000006000000fa0045168000a4
:1013f4000400280004826200e00f5200030032005f
:10140400010024008098200045fc0700350480007a
:101414000404200004826200e00f52000c01320038
:1014240086c0a900c45580000402e800c4558800a1
:10143400c555800014032000848f52000a00360032
:101444000002eb00c4558800451780000400240006
:1014540004826200e00f520002003200e9c2a900d7
:1014640001003700e9c2a8000002eb00b44a88007a
:10147400f55580000456800004824200c44a880066
:10148400355680004456800004824200e44a8800b5
:101494000002eb00044b8800344c800063026200bd
:1014a400e00f520002003200d062a90001003700b0
:1014b400d062a80045168000040021000482620066
:1014c400e00f520004003200012020006098200048
:1014d40013fc07000300370001202000609820005f
:1014e4001cfc070015168000040021000482620021
:1014f400e00f520004003200010022006098200036
:1015040007fc070003003700010022006098200058
:1015140010fc0700451680000400220004826200cb
:10152400e00f5200040032000140200060982000c7
:10153400fbfb0700030037000140200060982000f7
:1015440004fc0700151680000400280004826200d1
:10155400e00f5200040032000100210060982000d6
:10156400effb070003003700010021006098200012
:10157400f8fb0700b416800070026200e00f52000e
:1015840002003200d682a90001003700d682a800ea
:1015940000a620000f030700c0a320000d030700ce
:1015a40080a120000b030700409f200009030700cf
:1015b40054568000e00f520007003200344b800084
:1015c4000402e800344b88000002eb00444c88001d
:1015d4000002eb0054568800d55580000404200016
:1015e400848f520013003a00e4548000c4538800ee
:1015f400e45480000001eb000100210004007800a5
:101604001a07070000027800a452880024548000be
:1016140084518800245480000001eb000100210063
:101624000400780011070700000278006450880065
:10163400080037000002eb00c45388000002eb00ee
:10164400a45288000002eb00845188000002eb00e1
:101654006450880080a120001d0307000002780068
:10166400e00f520003003200210020008098200087
:10167400abfb070080a120002303070000027800d1
:10168400e00f520003003200410020008098200047
:10169400a3fb070080a120002903070000027800b3
:1016a400e00f5200030032008100200080982000e7
:1016b4009bfb070080a120006c0307000002780058
:1016c400e00f520003003200010120008098200046
:1016d40093fb0700409f2000fd02070000027800f2
:1016e400e00f520003003200010220008098200025
:1016f4008bfb0700409f20005c030700000278007a
:10170400e00f520003003200010420008098200002
:1017140083fb070000a62000ed020700000278000a
:10172400e00f5200030032000108200080982000de
:101734007bfb070000a62000f302070000027800ec
:10174400e00f5200030032000110200080982000b6
:1017540073fb070000a62000f902070000027800ce
:10176400e00f520003003200012020008098200086
:101774006bfb070000a620003c0307000002780072
:10178400e00f520003003200014020008098200046
:1017940063fb0700c0a32000cd020700000278000d
:1017a400e00f5200030032000180200080982000e6
:1017b4005bfb0700c0a320002c0307000002780095
:1017c400e00f520003003200010021008098200045
:1017d40053fb0700d555800004042000848f520079
:1017e40011003a0040a820004c020700f454800085
:1017f4004422de000401780001002100409c200006
:1018040096050700c0a92000440207003454800054
:101814004422de000401780001002900409c2000dd
:101824008e0507000a003700345580000401780053
:1018340001002100409c20008805070074548000aa
:101844000401780001002900409c20008305070062
:101854000080fa00000006000000fa000003eb001c
:10186400c551220004e2240080c1eb000001eb001a
:1018740091992100c0a92000ee0107000003eb00ac
:101884008002eb0004ee220080c1eb000001eb00bb
:101894009199210040a82000e601070024032000bc
:1018a400841f7800077d2000067d20008002eb0065
:1018b40004dc250080c1eb000001eb0041c32000e3
:1018c40000a620008e0107008f87e9002403200072
:1018d400841f7800077d2000067d20008002eb0035
:1018e40004dc250080c1eb000001eb002162200034
:1018f400c0a32000820107008f87e9002403200091
:10190400841f7800077d2000067d20008002eb0004
:1019140084a9230080c1eb000001eb0041c3200037
:1019240080a12000760107008f87e90024032000ae
:10193400841f7800077d2000067d20008002eb00d4
:1019440004dc250080c1eb000001eb0021622000d3
:10195400409f20006a0107008f87e9000002eb0026
:10196400344c88000002eb00444c88000002eb0079
:10197400544c88000002eb00644c880044102000a2
:10198400744c8800f4ff2100844c88000002eb00b2
:10199400e45488000002eb002454880034058000dd
:1019a4000400a0000410a0000420a0003405880056
:1019b4008220a900c404800004c0a10004d0a000b7
:1019c40004e0a000c404880004002f00041688006a
:1019d4000082eb00341688000002eb0064168800d5
:1019e40004002c009416880084002000f41688005b
:1019f4003416200024178800d4f92d000409880027
:101a04000002eb00c408880086c0a900440d23002e
:101a1400e4088800f4cf270004158800e4fd2000c2
:101a24001415880084442e0024158800848e2e000a
:101a34003415880034002f004415880004f0200079
:101a4400541588008560a9008d60a800a1e2a80053
:101a54000400240065002000244e8800354e8800d0
:101a640004022000a5002000444e8800554e880042
:101a740024c0b30004007800cce9b700f45320007c
:101a8400744e88000002eb00844e880004002a0093
:101a9400944e880004242400f5002000a44e8800fd
:101aa400b54e88000468290085092000c44e8800ca
:101ab400d54e88000400280065002000e44e88000c
:101ac400f54e880004022000a5002000044f880081
:101ad400154f8800c49c200014427800040078004c
:101ae400e4e9b700744e8000344f8800844e8000cf
:101af400444f8800944e8000544f8800a44e8000c8
:101b0400b54e8000644f8800754f8800c44e800035
:101b1400d54e8000844f8800954f8800409c20005b
:101b2400a9040700c09d2000a7040700acfc07001f
:101b340000242400f1002000f40507000060fe00ea
:101b4400d082a80000242400f1002000ef05070043
:101b54000060fe00d062a80000242400f1002000f0
:101b6400ea0507000060fe00d042a800002424001b
:101b7400f1002000e50507000060fe00d022a80067
:101b840000242400f1002000e00507000060fe00ae
:101b9400e9e2a80000242400f1002000db0507008e
:101ba4000060fe00e9a2a80000242400f100200047
:101bb400d60507000060fe00e982a8000080fa0054
:101bc40000000600801f7800849fbe00869fbe0030
:101bd4000000fa008560a900b4558000e00f5200af
:101be400030032000002eb00b4558800b90037004e
:101bf400151580000408200004826200e00f5200e2
:101c04002900320006538000175380000514800019
:101c140044148000048242000500200006024200b1
:101c240087824a000453880015538800c6508000f8
:101c3400d7508000151480005414800004824200a0
:101c4400050020000602420087824a00c450880032
:101c5400d5508800e6518000f7518000251480009b
:101c64006414800004824200050020000602420041
:101c740087824a00e4518800f5518800a64f80000d
:101c8400b74f800035148000741480000482420031
:101c9400050020000602420087824a00a44f880003
:101ca400b54f880028003700065380001753800082
:101cb40085148000c41480000482420005002000c2
:101cc4000602420087824a000453880015538800a4
:101cd400c6508000d750800095148000d414800032
:101ce40004824200050020000602420087824a0066
:101cf400c4508800d5508800e6518000f751800018
:101d0400a5148000e4148000048242000500200031
:101d14000602420087824a00e4518800f551880097
:101d2400a64f8000b74f8000b5148000f4148000e3
:101d340004824200050020000602420087824a0015
:101d4400a44f8800b54f880014148000444b8800c9
:101d540024148000544b880034148000644b8800a1
:101d640044148000744b880054148000844b880011
:101d740064148000944b880074148000a44b880081
:101d840084148000b44b880094148000c44b8800f1
:101d9400a4148000d44b8800b4148000e44b880061
:101da400c4148000f44b8800d4148000044c8800d0
:101db400e4148000144c8800f4148000244c88003f
:101dc400a45580000482e800a4558800a55580002d
:101dd400f40f2000848f52003e003600045380002c
:101de400155380004c2bdd004422de0004027300f6
:101df400c42ade000453880015538800045380006d
:101e04001553800004027800245388006022b8002f
:101e14000453880015538800e4518000f551800074
:101e24004c2bdd004422de0004027300c42ade00d1
:101e3400e4518800f5518800e4518000f551800098
:101e440004027800045288006022b800e45188003b
:101e5400f5518800c4508000d55080004c2bdd0023
:101e64004422de0004027300c42ade00c450880049
:101e7400d5508800c4508000d550800004027800fa
:101e8400e45088006022b800c4508800d55088000f
:101e9400a44f8000b54f80004c2bdd004422de00af
:101ea40004027300c42ade00a44f8800b54f8800e2
:101eb400a44f8000b54f800004027800c44f88000e
:101ec4006022b800a44f8800b54f88000002eb00e0
:101ed400a45588000080fa004f03be004f02be00e4
:101ee4004f007800004006000000fa0000000000e7
:101ef400000000000000fe000080fa000040060020
:101f04001200fa0010079800210798003207980081
:101f1400034f9800540798006507980076079800c7
:101f2400070f98000002eb00040f78001e039000d6
:101f34006022b800048bbe001e0290008002eb00f9
:101f4400250298001e0290008002eb0035029800e2
:101f54001e029000ae029000450298001e029000fe
:101f6400be029000550298000e4a9000e14f4200d4
:101f74000d003a001e02900005002800650298003a
:101f84001e0290008002eb00750298001e02900071
:101f940005002800050a98001e0290008002eb004c
:101fa400150a98000c0037001e0290000500280056
:101fb400650298001e0290008002eb0075029800f2
:101fc4001e02900005002800050a98001e029000d9
:101fd4008002eb00150a98001e029000de029000b9
:101fe400250a98001e029000ee029000350a98001f
:101ff4001e029000fe029000550a98001e029000f6
:102004008e0a9000650a98001e0290008002eb0080
:10201400750a98001e0290008002eb0005129800d9
:102024001e029000ceba9700151298000080fa00a4
:10203400000006001000fa0010079800210798001d
:1020440032079800034f98005407980065079800da
:10205400760798000002eb00040f78001e0290003f
:102064008002eb00250298001e029000de02900020
:10207400350298001e029000ee029000450298007e
:102084001e029000fe029000550298001e0290006d
:10209400ae029000650298001e029000be029000fd
:1020a400750298000e4a9000e14f42000d003a007c
:1020b4001e02900005002800050a98001e029000e8
:1020c4008002eb00150a98001e029000050028000b
:1020d400250a98001e0290008002eb00350a980041
:1020e4000c0037001e02900005002800050a980025
:1020f4001e0290008002eb00150a98001e02900058
:1021040005002800250a98001e0290008002eb00ba
:10211400350a98000080fa00000006000400fa0066
:10212400100798001e029000740390001e02900095
:10213400e40290001e029000140278000601780068
:102144008500780004007800480407000002780045
:10215400040f78001e029000940a90001e02900062
:10216400040a900005017800840078001e007800bd
:102174002904070000027800040f78001e02900072
:10218400b40a90001e029000240a90000501780011
:10219400840078001e0078001f0407000002780005
:1021a400040f78001e02900024029000e00f5200f9
:1021b40003003a001e029000d4029000050f78003c
:1021c4001e0290009e027800150298000080fa001a
:1021d400000006000400fa00100798001e02900098
:1021e400140b90001e029000840a90001e029000be
:1021f400240290000601780085007800040078002d
:102204000504070000027800040f78001e02900005
:10221400f40290001e029000640290000501780010
:10222400840078001e007800fb0307000002780099
:10223400040f78001e029000d40290001e02900049
:102244004402900005017800840078001e007800a4
:102254000604070000027800040f78001e029000b4
:102264009e027800350298000080fa000000060003
:102274000400fa00000f7800110798001e0278008d
:10228400b40290001e029000848f520003003100bb
:102294001e027800b4029000150798001e02780010
:1022a400c40290001e029000848f52000300360086
:1022b4001e027800c4029000150798001e027800e0
:1022c4009e029000050a78000080fa0000000600d3
:1022d4000200fa00000f78001e027800b402900099
:1022e4001e027800240a9000848f520002003600f7
:1022f40014002000010037000002eb000400780005
:102304000080fa00000006000200fa00000f7800c6
:102314001e027800b40290001e027800340a900075
:10232400848f5200020031001400200001003700a5
:102334000002eb00040078000080fa0000000600b0
:102344000400fa00100798001e029000d40a9000be
:102354001e029000440a90000001eb008500780002
:1023640004007800ac03070000027800040f780032
:102374001e029000640a90009e0f52000300360073
:102384001e029000e40a9000050f780004f02f006c
:102394009e0252001e029000440a9000848f520054
:1023a400040036001e029000440a90001e0f4200f2
:1023b4000200370004f02f00040f78001e02900082
:1023c400340290009e0f5200060036001e02900058
:1023d400740a90008402e8001e029000750a9800b6
:1023e400090037001e029000740a9000e00f5200aa
:1023f400050032001e029000740a90008402e90075
:102404001e029000750a98001e029000f40a9000c3
:102414001e02900014129000848f52000f003900a5
:102424001e029000f40a90001e0290001412900004
:1024340004024200848f5200060039001e029000fc
:102444001412900004024200840278001e029000dc
:10245400750a980014002000010037000002eb0008
:10246400040078000080fa00000006000400fa006e
:10247400100798001e029000d40a90001e029000db
:10248400440a90000001eb00850078000400780005
:102494006103070000027800040f78001e02900018
:1024a400640a90009e0f5200030036001e02900042
:1024b400e40a9000050f78001e029000440a900080
:1024c4009e0f5200040036001e029000440a900041
:1024d4001e0f5200020037000002eb00040f7800c8
:1024e4001e029000340290009e0f5200060031003c
:1024f4001e029000041290008402e8001e02900064
:1025040005129800090037001e0290000412900082
:10251400e00f5200050032001e02900004129000e9
:102524008402e9001e029000051298001e02900029
:10253400841290001e02900014129000848f5200a6
:102544000f0039001e029000841290001e029000b9
:102554001412900004024200848f520006003900d5
:102564001e029000141290000402420084027800bb
:102574001e0290000512980014002000010037008c
:102584000002eb00040078000080fa00000006005e
:102594001400fa0040479800310798004207980059
:1025a400530798006407980075079800060f980071
:1025b400170f98003e029000f401b300340798000e
:1025c4000e0b90009e0b9000463add00ca32de00ee
:1025d400850272004632dd006e019000fe0190001b
:1025e4000400be0052f707000002be00048fbe00c4
:1025f40004202000050020001e03be00840f5300a9
:10260400858f5b0003003e0014002000e455880021
:102614003200370034802000050020001e03be0075
:10262400840f5300858f5b000d003e0044002000a2
:10263400e45588001e02be004e2bdd004222de005f
:1026440004027300c22ade00048fbe00be029000a2
:10265400e4ff2f0004826200340798001f00370053
:10266400f4002200050020001e03be00840f530066
:10267400858f5b000d003e0004012000e4558800b6
:102684001e02be004c2bdd004422de000402730057
:10269400c42ade00048fbe00be029000d4ff2f00c7
:1026a40004826200340798000c0037000404200000
:1026b400e45588001e02be004a2bdd004622de00df
:1026c40004027300c62ade00048fbe00be0290001e
:1026d400c4ff2f000482620034079800041c200009
:1026e400050020001e03be00840f5300858f5b008d
:1026f40008003600e45580004322dd00e4558800dc
:10270400be02900034fe2f00048262003407980059
:102714005700370004182000050020001e03be00e7
:10272400840f5300858f5b0009003600e455800058
:102734006722b90004027800e4558800be029000c4
:1027440074fe2f00048262003407980048003700aa
:1027540004142000050020001e03be00840f530053
:10276400858f5b0009003600e45580006622b900bd
:1027740004027800e4558800be029000b4fe2f00e5
:1027840004826200340798003900370004102000e6
:10279400050020001e03be00840f5300858f5b00dc
:1027a40009003600e45580006522b900040278006f
:1027b400e4558800be029000f4fe2f0004826200fb
:1027c400340798002a003700040c2000050020007c
:1027d4001e03be00840f5300858f5b000800360083
:1027e400e45580004222dd00e4558800be029000da
:1027f40034ff2f0004826200340798001c00370065
:1028040004082000050020001e03be00840f5300ae
:10281400858f5b0009003600e45580006322b9000f
:1028240004027800e4558800be02900074ff2f0073
:1028340004826200340798000d003700040420006d
:10284400050020001e03be00840f5300858f5b002b
:1028540007003600e455800004024200e455880075
:10286400be029000b4ff2f00048262003407980077
:10287400e45580004222dd00e45588004e42900079
:10288400e14f520004003a003e0290001411880007
:102894005e039000061188004e429000e24f520001
:1028a40004003a003e029000441188005e03900048
:1028b400361188000080fa00000006000c00fa00bf
:1028c40040079800214f98000042eb00044f780025
:1028d4002e4a9000e14f520054003a008500a900ae
:1028e4004e029000241188000002eb003407980087
:1028f400180037003e0290000402e80034079800f4
:10290400e4558000be029000848f5200030036001c
:1029140034c0b300044f78000e0037000511800066
:102924000404200004826200e00f5200030032001d
:1029340044c0b300044f780006003700041180003f
:1029440062026200e00f520002003a0014c0b300b9
:10295400044f78001e427800e04f5200e5ff320039
:10296400200037003e0290000402e800340798007b
:10297400e4558000be029000848f520003003600ac
:1029840034c0b300044f78001600370005118000ee
:102994000404200004826200e00f520003003200ad
:1029a40044c0b300044f78000e00370025048000b3
:1029b4000410200004826200e00f52000300320081
:1029c40024c0b300044f78000600370004118000cf
:1029d40061026200e00f52000200320024c0b30022
:1029e400044f78001e427800e14f5200ddff3200b0
:1029f4001e427800e24f520005003a002411800084
:102a040005002000140798002507980007003700e8
:102a140004002000151121001407980025079800d0
:102a2400f45580000402e800f45588002e4a900012
:102a3400e24f52004d003a008740a9004e02900038
:102a4400541188000002eb00340798001800370086
:102a54003e0290000402e80034079800e455800028
:102a6400be029000848f52000300360034c0b300cd
:102a7400044f78000e003700351180000404200054
:102a840004826200e00f52000300320044c0b3002d
:102a9400044f78000600370034118000620262009f
:102aa400e00f520002003a0014c0b300044f780053
:102ab4001e427800e04f5200e5ff32001900370053
:102ac4003e0290000402e80034079800e4558000b8
:102ad400be029000848f52000300360034c0b3005d
:102ae400044f78000f0037003511800004042000e3
:102af40004826200e00f52000300320044c0b300bd
:102b0400044f78000700370035048000044020009b
:102b140004826200e00f52000200320024c0b300bd
:102b2400044f78001e427800e14f5200e4ff320067
:102b34001e427800e24f520005003a005411800012
:102b440005002000140798002507980007003700a7
:102b5400040020001511210014079800250798008f
:102b6400045680000402e800045688001e02900007
:102b7400ae0290000400be000080fa0000000600cf
:102b84001001900090007800010051000000e9005d
:102b9400f000b200000006001001900090007800e0
:102ba40002805000f000b200000006001170a60080
:102bb4001a003700e40140009309e80090019000f6
:102bc4001001e800f200b2000310e100100032002e
:102bd400100178006a11b800e801400082814100c8
:102be4006e8150009219780066014100b219780094
:102bf400b2197800b2197800b21978001001e8000f
:102c0400f200b20002087800e60140009309e900ee
:102c1400e60140009309e8001170a10000000600dd
:102c24001170a600090037006e8150001218780058
:102c340066014100321878003218780032187800a2
:102c4400321878001170a10008003700827f21003b
:102c54000218780002002000021878000218780098
:102c640002187800021878003100370000000600ce
:102c7400e40140009309e800900190001001e8008d
:102c8400f200b2000310e1000e00320010017800df
:102c94006a11b800e801400082814100b11978004e
:102ca400b1197800b1197800b1197800b119780018
:102cb4001001e800f200b20002087800e6014000ca
:102cc4009309e900e60140009309e80000000600ca
:102cd40010019000900178000310e10008003a0010
:102ce400837f210083187800030020008318780074
:102cf4008318780083187800831878000c00370054
:102d04006a11b8006801410000014100b21878005e
:102d1400b2187800b2187800b2187800b2187800a7
:102d2400100190000201e800f200b20012009800c5
:102d3400000006001130a7001300370010019000b6
:102d4400900178000310e1000f0032006a11b8000e
:102d54006801410000014100ee815000b209780091
:102d6400e6814100b2197800b2197800b2197800ee
:102d7400b21978001130a000100190000201e8009f
:102d8400f200b20012009800000006001130a10009
:102d94006e815000300978006601410030197800d6
:102da4003019780030197800301978001130a000fb
:102db400000006000018eb000018eb000018eb0000
:102dc4000008eb00000006000200fa00000f780083
:102dd4001e027800b4029000240290000400be0099
:102de400c70007001e0278001402be000400be00e3
:102df400c30007001e027800b40290002402900071
:102e04000400be00f20007001e0278001402be0097
:102e14000400be00ee0007001e027800240b9000a0
:102e2400b40b90001e027800940a9000040a9000eb
:102e34001e007800f00190001e00780060019000f0
:102e44001e007800d00090001e007800004890001a
:102e5400cffd07000080fa00000006000c00fa0015
:102e6400300798004107980052079800de0290004e
:102e7400f4ff20000482620054079800ce02900000
:102e840004002f000482620044079800ce029000e0
:102e94005e02900005027200440798000042eb00b5
:102ea400044f78003e0290001402be000400be00ed
:102eb400a40007003e029000044a90008440780079
:102ec4004e0090007dfe07000002be00140798002b
:102ed400250798001e039000ae0390000400200014
:102ee40015112100840f5300858f5b0002003a0006
:102ef40014c0b300044f78003e0290001402be00d8
:102f04000400be007e0007003e029000b402900060
:102f1400240290000400be008a00070000000000a4
:102f24000000000000000000000000003e029000cd
:102f3400b4029000240290000400be007000070058
:102f44001e427800e04f52000300320064568000b5
:102f54000402e800645688001e42780004407800a9
:102f64000080fa00000006000400fa001007980030
:102f74001e029000c4029000050f78009e027800a3
:102f840004102700848f52000e003a001e029000a5
:102f9400240290008400780040a82000b4fc0700bc
:102fa4001e0290001402900084007800c0a9200042
:102fb400affc0700410020006098200065f5070081
:102fc40004003700a44d80000402e800a44d8800ea
:102fd400000000000080fa00000006000400fa006f
:102fe400100798001e029000c4029000050f78009c
:102ff4001e02780005082700850f520004003200e5
:1030040015082700850f520005003200080037001c
:1030140001102000609820004ef5070008003700da
:1030240001102000609820003df5070004003700df
:10303400a44d80000402e800a44d880000000000b4
:103044000080fa00000006000400fa00100798004f
:103054001e029000c4029000050f7800f4ff2000c7
:103064001e0f6200a44d80000402e800a44d8800f5
:103074000080fa00000006000000fa00140020009e
:10308400545688000080fa00000006000000fa0090
:103094001452800037538000d64f8000f5508000d2
:1030a400870178000601780085007800c0072000b9
:1030b40041f607000080fa00000006000000fa0054
:1030c400e6548000255480000002eb00860178005d
:1030d4000001eb0085007800d007200036f60700d9
:1030e4000080fa00000006000000fa000080fa00e8
:1030f400000006000000fa000080fa00000006004c
:1031040001600100c422b70000000600ca22b70013
:1031140000000600d022b70000000600d622b70047
:10312400000006000000000000000600e222b700d4
:1031340000000600e822b7000000060000000000be
:10314400000006000080ea0001600100c422b6000d
:1031540000000600ca22b60000000600d022b60015
:1031640000000600d622b6000000060000000000a1
:1031740000000600e222b60000000600e822b600c5
:1031840000000600000000000000060001600100cd
:10319400c022b70000000600c622b70000000600e7
:1031a400cc22b70000000600d222b70000000600bf
:1031b4000000000000000600de22b7000000060048
:1031c400e422b70000000600000000000000060032
:1031d4000080ea0001600100c022b6000000060081
:1031e400c622b60000000600cc22b600000006008d
:1031f400d222b60000000600000000000000060015
:10320400de22b60000000600e422b600000006003c
:1032140000000000000006000200e00005003b0082
:10322400020040000800310000002000c62aec0023
:10323400050037000200400003003900f0ff2f00b2
:10324400c62aec00000037000101b8006218b8007b
:103254000100e00002003200f0ff2f00c62aec005b
:10326400cf10de0001007000000006000200e00044
:1032740005003b000200400008003100000020006f
:10328400c82aec00050037000200400003003900a2
:10329400f0ff2f00c82aec00000037000101b8003d
:1032a4007018b8000100e00002003200f0ff2f00a7
:1032b400c82aec00cc10de000100700000000600fb
:020000040000fa
:1032c400c4090000f800000000000000000800002d
:1032d400c401000000000000ca0a0000020000004f
:1032e40000000000bc0a000006000000000000000e
:1032f400cc0a00000200000000000000c60a000022
:0c330400040000000000000000000000b9
:020000040000fa
:10331000f03fb1000180b10006003500ee03090066
:1033200000000000403fb1000180b100fbff3d0004
:103330001000b000203fb0000200350000800900fe
:0833400000000000000006007f
:020000040000fa
:0200000401f009
:04000000ecbb000055
:020000040000fa
:0200000401f009
:04000400e7ff000012
:020000040000fa
:0200000401f009
:040008004cff0000a9
:020000040000fa
:0200000401f009
:04000c00ffff0000f2
:020000040000fa
:0200000401f009
:04001000ffff0000ee
:020000040000fa
:0200000401f009
:04001400ffff0000ea
:020000040000fa
:0200000401f009
:04001800ffff0000e6
:00000001FF
