:020000040000fa
:080000000001040000000000f3
:020000040000fa
:100008006c0c00006c0c00006c0c00006c0c000008
:100018006c0c00006c0c00006c0c00006c0c0000f8
:100028006c0c00006c0c00006c0c00006c0c0000e8
:100038006c0c00006c0c00006c0c00006c0c0000d8
:100048006c0c00006c0c00006c0c0000160b00001f
:100058006c0c00006c0c00006c0c00006c0c0000b8
:100068006c0c00006c0c00006c0c00006c0c0000a8
:100078006c0c00006c0c00006c0c00006c0c000098
:100088006c0c00006c0c00006c0c00006c0c000088
:100098006c0c00006c0c00006c0c00006c0c000078
:1000a8006c0c00006c0c00006c0c00006c0c000068
:1000b8006c0c00006c0c0000640700006c0c000065
:1000c8006c0c00006c0c00006c0c00006c0c000048
:1000d8006c0c00006c0c00006c0c00006c0c000038
:1000e8006c0c00006c0c00006c0c00006c0c000028
:0800f8006c0c00006c0c000010
:020000040000fa
:100108006c0c00006c0c00006c0c00006c0c000007
:100118006c0c00006c0c00006c0c00006c0c0000f7
:100128006c0c00006c0c00006c0c00006c0c0000e7
:100138006c0c00006c0c00006c0c00006c0c0000d7
:100148006c0c00006c0c00006c0c0000160b00001e
:100158006c0c00006c0c00006c0c00006c0c0000b7
:100168006c0c00006c0c00006c0c00006c0c0000a7
:100178006c0c00006c0c00006c0c00006c0c000097
:100188006c0c00006c0c00006c0c00006c0c000087
:100198006c0c00006c0c00006c0c00006c0c000077
:1001a8006c0c00006c0c00006c0c00006c0c000067
:1001b8006c0c00006c0c0000640700006c0c000064
:1001c8006c0c00006c0c00006c0c00006c0c000047
:1001d8006c0c00006c0c00006c0c00006c0c000037
:1001e8006c0c00006c0c00006c0c00006c0c000027
:0801f8006c0c00006c0c00000f
:020000040000fa
:100200006fac20000e7f22000e018800000000006d
:10021000000020000000e000020032000001200089
:10022000200288000c000700e02f210001002000c0
:1002300011000700000020000000e0000200320072
:100240000000020000000000aa08020000000000f8
:100250000040da000000fe004440a9000000200039
:100260000000e0000300320000002000a001880030
:100270004440a8000000060091018800800078003a
:100280000000eb0015003700e280400032a0b4000f
:100290009101ba00e280400032a0b4009102ba009d
:1002a000e280400032a0b4000002eb00472bde00e9
:1002b000f507b200602ce10004003a000059eb00a1
:1002c0008301e900fdff3e00040037006128e100e2
:1002d000010032000082eb00040007001101ba00a7
:1002e0000200e000e8ff3a00000006003159ba00c1
:1002f0008301e9000c0032002159ba008301e900b2
:10030000080032000400e00003003a00e2804000f0
:1003100032a0b400f5ff370011d9ba008301e9001b
:10032000faff3a008100e800e180400032a0b4000a
:10033000000006006022b800060220000000d00085
:100340008180d2000482d2008582d2000000a00009
:100350000202520083825a0003003100020242006e
:1003600083824a000000a1000603e900f3ff3a007f
:040370000000060083
:020000040000fa
:100374000000fa00170007009c0107008500070031
:10038400020007000080fa00000006000000fa00e6
:10039400250480000408200004826200e00f52005b
:1003a4000a00320084e0a900e44d80000402e80061
:1003b400e44d8800649820001402900084027800c0
:1003c4000500a00064982000150298000080fa003f
:1003d400000006000a00fa002e0037008e007800a4
:1003e40000802000110707009e0278008407200087
:1003f4008482620084032000848f5200040032004f
:10040400944d80000402e800944d880021003700d8
:100414009e027800844b2100848f520003003a002e
:100424000e0078008e0007001a0037009e02780044
:10043400845b2100848f520003003a000e00780090
:100444001f000700130037009e0278008463210018
:10045400848f520003003a000e007800cf0007009a
:100464000c0037009e027800c4c721008482620019
:1004740084032100848f520003003a000e007800a8
:100484000f00070003003700744d80000402e800e9
:10049400744d880000802000960607000002780052
:1004a400e00f5200cdff3a0074458000b44d88003f
:1004b40034408000c44d88000080fa00000006002b
:1004c4000400fa00100798001e029000c402900075
:1004d400050f780004002f009e026200040027002c
:1004e400848f520004003200844d80000402e8002e
:1004f400844d880025003700f4ff20009e0262002e
:10050400f40f2000848f520004003e00844d8000cc
:100514000402e800844d88001c003700f4ff20002a
:100524009e026200f42f2000848f520003003e00dc
:100534001e0090006307070014003700f4ff20003a
:100544009e026200f43f2000848f520004003e00ab
:10055400844d80000402e800844d88000b003700bd
:10056400f4ff20009e026200f44f2000848f5200aa
:1005740003003e001e009000bd000700030037008a
:10058400844d80000402e800844d88000080fa0055
:10059400000006000200fa006498200014027800ab
:1005a400630f62000b0007001e027800e00f520088
:1005b40006003a0064982000140278006302620086
:1005c400e00f520001003200b10007000080fa0081
:1005d400000006000000fa006498200094029000d5
:1005e400f4ff210004826200e00f52000700320091
:1005f4006498200014027800840278000500a000aa
:1006040064982000050a78000300370064982000ed
:100614008002eb00050a78006498200094027800b8
:100624004410200004826200e00f520007003200f0
:100634006498200014027800840278000510a00059
:1006440064982000050a78000300370064982000ad
:100654008002eb00050a78000080fa000000060022
:100664000400fa00100798001e029000c4029000d3
:10067400050f780004002f009e026200040027008a
:10068400848f520004003200844d80000402e8008c
:10069400844d880013003700f4ff20009e0262009e
:1006a400f4072000848f520003003e001e009000d7
:1006b4000e0007000b003700f4ff20009e026200ca
:1006c400f40f2000848f520003003e001e009000af
:1006d4001207070003003700844d80000402e8007d
:1006e400844d88000080fa00000006000400fa002f
:1006f400100798001e029000c4029000050f7800b5
:10070400f4ff20001e0f62001e0278000500200086
:100714005600200007002000860f5200878f5a00e1
:1007240016003e0004600100050037000600370093
:1007340012003700160037000500370008003700a4
:1007440022070700130037000000fe0011003700e5
:10075400649820008002eb00050a78000d00370041
:100764006498200014027800840278000540a000f8
:1007740064982000050a780006003700844d800044
:100784000402e800844d88000000000001003700e6
:10079400000000000080fa00000006000400fa00d7
:1007a400100798001e029000c4029000050f780004
:1007b40004002f009e02620004002700848f520070
:1007c40004003200844d80000402e800844d880057
:1007d40025003700f4ff20009e026200f40f200081
:1007e400848f520004003e00844d80000402e8001f
:1007f400844d88001c003700f4ff20009e02620034
:10080400f42f2000848f520003003e001e0090004d
:10081400e206070014003700f4ff20009e02620085
:10082400f43f2000848f520004003e00844d800079
:100834000402e800844d88000b003700f4ff200018
:100844009e026200f44f2000848f520003003e0099
:100854001e0090000a00070003003700844d80004a
:100864000402e800844d88000080fa0000000600bd
:100874000200fa00000f78000080fa000000060071
:100884000200fa00000f78000080fa000000060061
:100894000a00fa00c4832a00040f78004dff070001
:1008a40064982000140278001407980064982000cb
:1008b40014029000240798006498200024029000f9
:1008c400340798006498200034029000440798008c
:1008d400e14120000e00780003060700144d80005b
:1008e4000402e800144d88000080fa0000000600ad
:1008f4000200fa00000f78000060fe000002eb0026
:10090400540888000080fa00000006001400fa0071
:10091400500798006107980072079800030f980029
:10092400140f98005e0290006f0262005407980052
:10093400de029000040720000502720054079800ac
:100944005e0290000402420054079800de02900008
:100954000460200005027200540798005e029000b3
:100964004222dd00540798005e029000040f7800d4
:100974009e02780004f02f0004826200040f7800c5
:100984001e0278004322dd00040f78009e027800e6
:100994005e039000f40f200004026300050272005d
:1009a400040f78001e0a9000140798000e0a9000a5
:1009b400240798007e029000340798006e0290008d
:1009c400440798008e007800808a20007f05070085
:1009d4007421800068026200e00f520001003a00b6
:1009e40088c0a8000080fa00000006000000fa0099
:1009f400250480000404200004826200e00f5200f9
:100a04009f00320084c0a900f44d80000402e80075
:100a1400f44d8800f44d80006f026200f44d8800ac
:100a24009bff0700f44d800005002000f600200025
:100a340007002000860f5200878f5a0090003e0066
:100a4400046001000f003700180037002000370051
:100a540029003700320037003b00370044003700dc
:100a64004d003700560037005f003700680037003c
:100a7400710037007a0037007b0037007c003700b4
:100a84007d003700e44a8000d74a8000c64a8000cf
:100a9400b54a800087017800060178008500780057
:100aa4000000eb0099ff070075003700064b80003b
:100ab400f54a80000002eb008001eb00060178009b
:100ac400850078001000200090ff07006c003700bc
:100ad400644b8000574b8000464b8000354b8000b0
:100ae4008701780006017800850078002000200046
:100af40086ff070062003700a44b8000974b8000fc
:100b0400864b8000754b80008701780006017800d1
:100b140085007800300020007cff07005800370073
:100b2400e44b8000d74b8000c64b8000b54b80005f
:100b340087017800060178008500780040002000d5
:100b440072ff07004e003700244c8000174c8000d1
:100b5400064c8000f54b8000870178000601780080
:100b6400850078005000200068ff0700440037002b
:100b7400244d8000174d8000064d8000f54c800008
:100b84008701780006017800850078008000200045
:100b94005eff07003a003700644d8000574d800027
:100ba400464d8000354d80008701780006017800ad
:100bb400850078009000200054ff070030003700c3
:100bc400a44d8000974d8000864d8000754d8000b7
:100bd400870178000601780085007800a0002000d5
:100be4004aff070026003700e44d8000d74d8000ff
:100bf400c64d8000b54d800087017800060178005d
:100c040085007800b000200040ff07001c0037007a
:100c1400a44c8000974c8000864c8000754c80006a
:100c240087017800060178008500780060002000c4
:100c340036ff070012003700e44c8000d74c8000d8
:100c4400c64c8000b54c800087017800060178000e
:100c540085007800700020002cff07000800370092
:100c6400dd05070006003700e4050700040037002f
:100c7400eb05070002003700ec0507000000000048
:100c84000080fa00000006000e00fa0050079800e9
:100c9400610798000002eb00040f78006e029000d8
:100ca400240798005e02900014079800e140200099
:100cb4000e0078000c050700244d80000402e800b3
:100cc400244d88000080fa00000006001000fa009d
:100cd400500798006107980072079800c4032a001f
:100ce400040f78007e029000140798005e029000c2
:100cf400240798006e029000e10f520003003a00ae
:100d040004102e00440798000200370014102e002f
:100d140044079800e14020000e007800f204070028
:100d2400244d80000402e800244d88000080fa006d
:100d3400000006000000fa0090c0a90088c0a900c5
:100d4400340580000480a1000490a10004a0a00048
:100d5400340588000002eb00b42288005804a8007f
:100d64005824a8005844a80058a4a80000802000d3
:100d7400e7040700808a2000e504070004402000ff
:100d8400842288000000000085228000040e2000d8
:100d94008482620004082000848f5200faff3a0023
:100da400140020009422880014392000a422880012
:100db40014802100841f8800d4872100c41f880068
:100dc4000002eb00041e880004802000441e8800fa
:100dd40084032100841e8800c47f2100c41e88006f
:100de400c47f2100041f8800c47f2100441f8800a1
:100df400140020007421880024002000f4208800be
:100e04003400200074208800040c20002421880071
:100e1400040c2000a4208800040c20002420880056
:100e24000002eb00742288000002eb00f421880029
:100e34000002eb008422880000000000852280006c
:100e4400040e200004826200e00f5200fbff3a000f
:100e540090c0a80054fb25008408880024f42000d6
:100e6400640888000002eb003408880084c0a900ec
:100e74008cc0a90011e1a800d4fb250094088800c7
:100e8400546222007408880084e0a9008ce0a90060
:100e940013e1a8000002eb00744c880004d8280079
:100ea400844c8800441f2000944c880014042000c3
:100eb400a44c8800940c2000b44c88000080fa00f4
:100ec400000006003600f800809fbe00829fbe002e
:100ed400849fbe00869fbe000a00fa0088c0a90055
:100ee400644d80000402e800644d8800752280008f
:100ef4000408200004826200e00f5200180032004f
:100f04007422800061026200e00f52000b003a007c
:100f1400344d80000402e800344d8800e144200090
:100f24000e007800150407003e029000844a8800f1
:100f34004e029000944a880008003700444d800017
:100f44000402e800444d8800e14420000e007800cb
:100f54000a0407000e00780065fe07005604a90085
:100f6400f52180000408200004826200e00f520092
:100f740007003200544d80000402e800544d8800fc
:100f8400e143200000802000df0307005624a9006d
:100f94007421800068026200e00f52000c003a00e5
:100fa400808a2000d303070000027800e00f52007b
:100fb40007003200e1422000808a20003404070048
:100fc4005644a900a44d80000402e800a44d880002
:100fd400b52280000402200004826200e00f520067
:100fe40004003200044d80000402e800044d88002f
:100ff40056a4a900d4228000f44c88000080fa0092
:101004004f03be004f02be004f01be004f00be00a2
:101014003600f900004006000400fa0010079800aa
:101024001e029000340390001e029000a40290005f
:101034001e029000140278000601780085007800f2
:10104400040078005705070000027800040f7800b8
:101054001e029000d40290001e02900044029000f0
:1010640005017800840078001e0078003805070028
:1010740000027800040f78001e029000f402900031
:101084001e0290006402900005017800840078003c
:101094001e0078002e05070000027800040f780077
:1010a4001e0290009e027800150298000080fa004b
:1010b400000006000400fa00100798001e029000c9
:1010c400740390001e029000e40290001e0290003f
:1010d4001402780006017800850078000400780086
:1010e4003005070000027800040f78001e0290000b
:1010f400d40290001e029000440290000501780082
:10110400840078001e0078001105070000027800b2
:10111400040f78001e029000b40290001e0290009a
:101124002402900005017800840078001e007800f5
:101134001c05070000027800040f78001e029000ce
:101144009e027800150298000080fa000000060054
:101154000000fa005e00070000242400f1002000d3
:10116400350507000060fe00d082a800002424009a
:10117400f1002000300507000060fe00d062a800e6
:1011840000242400f10020002b0507000060fe006d
:10119400d042a80000242400f10020002605070006
:1011a4000060fe00d022a80000242400f1002000ea
:1011b400210507000060fe00e9e2a80000242400e5
:1011c400f10020001c0507000060fe00e9a2a80051
:1011d40000242400f1002000170507000060fe0031
:1011e400e982a80000242400f10020001205070071
:1011f4000060fe005efc070001000700fdff3700f1
:101204000000fa0035048000040420000482620017
:10121400e00f52002c00320086c0a900c4558000a3
:101224000402e800c4558800c5558000140320005a
:10123400848f52000a0036000002eb00c455880077
:10124400451780000400240004826200e00f52006d
:1012540002003200e9c2a90001003700e9c2a80077
:10126400545380004452880080a420006aff070081
:10127400545280004422de00040178000100210061
:1012840080a82000cc03070044538000c452880087
:10129400c5528000f4702200848f52000200360090
:1012a4000002eb00c452880080a520005aff07000a
:1012b400d45280004422de00040178000100290099
:1012c40080a82000bc0307000080fa00000006008c
:1012d4000000fa0094992100e45288000002eb0017
:1012e400f452880004002800045388000002eb0034
:1012f4001453880004002800245388000002eb00e3
:101304003453880094992100645288000002eb0051
:101314007452880004002800845288000002eb0004
:101324009452880004002800a45288000002eb00b4
:10133400b4528800844f2100545188000002eb000d
:101344006451880004002800745188000002eb00f6
:101354008451880004002800945188000002eb00a6
:10136400a4518800844f2100344f88000002eb0010
:10137400444f880004002800544f88000002eb000a
:10138400644f880004002800744f88000002eb00ba
:10139400844f8800c49b2200445088000002eb0064
:1013a4005450880004002800645088000002eb00b8
:1013b4007450880004002800845088000002eb0068
:1013c40094508800c49b2200244e88000002eb0045
:1013d400344e880004002800444e88000002eb00cc
:1013e400544e880004002800644e88000002eb007c
:1013f400744e8800649820008002eb00050a78008f
:10140400649820008002eb00150298006498200084
:101414008002eb0025029800649820008002eb0013
:101424003502980004fa20004453880004fa20008e
:10143400545388000002eb00645388000002eb0060
:10144400745388000002eb00845388000002eb0010
:10145400945388006022b800a4538800b5538800d0
:101464006022b800c4538800d55388006022b800b5
:10147400e4538800f55388006022b80004548800bf
:10148400155488000002eb002454880034058000c1
:101494000400a0000410a0000420a000340588006b
:1014a4008220a900c404800004c0a10004d0a000cc
:1014b40004e0a000c404880004002f00041688007f
:1014c4000082eb00341688000002eb0064168800ea
:1014d40004002c009416880084002000f416880070
:1014e4003416200024178800d4f92d00040988003c
:1014f4000002eb00c408880086c0a900440d230044
:10150400e4088800f4cf270004158800e4fd2000d7
:101514001415880084442e0024158800343e2e00bf
:101524003415880034002f004415880034f02f004f
:10153400541588008560a9008d60a800a1e2a80068
:101544000400240065002000445488005554880099
:1015540004022000a500200064548800755488000b
:1015640024c0b3000400780090eab700f4532000cc
:10157400945488000002eb00a454880004002a005c
:10158400b454880004242400f5002000c4548800c6
:10159400d55488000468290085092000e454880093
:1015a400f5548800040028006500200004558800d4
:1015b4001555880004022000a50020002455880049
:1015c4003555880004a920001442780004007800ee
:1015d400a8eab7009454800054558800a4548000ad
:1015e40064558800b454800074558800c454800045
:1015f400d55480008455880095558800e4548000b3
:10160400f5548000a4558800b555880080a82000b2
:10161400c402070000aa2000c2020700c5fd07009b
:101624000080fa0000000600801f7800849fbe003e
:10163400869fbe000000fa008560a9003454800033
:10164400e00f5200030032000002eb003454880023
:101654009b003700151580000408200004826200f6
:10166400e00f520029003200a6538000b7538000d7
:101674000514800044148000048242000500200008
:101684000602420087824a00a4538800b5538800aa
:10169400c6538000d7538000151480005414800072
:1016a40004824200050020000602420087824a00ac
:1016b400c4538800d5538800e6538000f753800054
:1016c4002514800064148000048242000500200078
:1016d4000602420087824a00e4538800f5538800da
:1016e4000654800017548000351480007414800060
:1016f40004824200050020000602420087824a005c
:10170400045488001554880028003700a65380002c
:10171400b753800085148000c41480000482420002
:10172400050020000602420087824a00a453880074
:10173400b5538800c6538000d753800095148000a9
:10174400d4148000048242000500200006024200f6
:1017540087824a00c4538800d5538800e65380002a
:10176400f7538000a5148000e41480000482420032
:10177400050020000602420087824a00e4538800e4
:10178400f55388000654800017548000b514800077
:10179400f414800004824200050020000602420086
:1017a40087824a0004548800155488002454800019
:1017b4000482e8002454880025548000f40f20009b
:1017c400848f52003e003600a4538000b55380003d
:1017d4004c2bdd004422de0004027300c42ade0028
:1017e400a4538800b5538800a4538000b5538000e7
:1017f40004027800645388006022b800a45388006f
:10180400b5538800c4538000d55380004c2bdd00b1
:101814004422de0004027300c42ade00c45388009c
:10182400d5538800c4538000d55380000402780047
:10183400745388006022b800c4538800d5538800cc
:10184400e4538000f55380004c2bdd004422de007d
:1018540004027300c42ade00e4538800f5538800b0
:10186400e4538000f5538000040278008453880018
:101874006022b800e4538800f553880004548000c3
:10188400155480004c2bdd004422de00040273005a
:10189400c42ade00045488001554880004548000cf
:1018a4001554800004027800945388006022b80024
:1018b40004548800155488000002eb002454880066
:1018c4000080fa004f03be004f02be004f007800b4
:1018d400004006000000fa000000000000000000c4
:1018e4000000fe000080fa00004006001400fa0028
:1018f4004047980031079800420798005307980022
:101904006407980075079800060f9800170f980051
:101914003e029000f401b300340798000e0b9000cf
:101924009e0b9000463add00ca32de00850272004a
:101934004632dd006e019000fe0190000400be00fe
:101944007bfa07000002be00048fbe0004202000c2
:10195400050020001e03be00840f5300858f5b002a
:1019640003003e0014002000d455880032003700e4
:1019740034802000050020001e03be00840f5300a5
:10198400858f5b000d003e0044002000d455880084
:101994001e02be004e2bdd004222de000402730054
:1019a400c22ade00048fbe00be029000e4ff2f00b6
:1019b40004826200340798001f003700f4002200fc
:1019c400050020001e03be00840f5300858f5b00ba
:1019d4000d003e0004012000d45588001e02be0004
:1019e4004c2bdd004422de0004027300c42ade0016
:1019f400048fbe00be029000d4ff2f000482620058
:101a0400340798000c00370004042000d4558800e3
:101a14001e02be004a2bdd004622de0004027300d3
:101a2400c62ade00048fbe00be029000c4ff2f0051
:101a34000482620034079800041c20000500200082
:101a44001e03be00840f5300858f5b000800360020
:101a5400d45580004322dd00d4558800be02900096
:101a640034fe2f00048262003407980057003700c8
:101a740004182000050020001e03be00840f53003c
:101a8400858f5b0009003600d45580006722b900b9
:101a940004027800d4558800be02900074fe2f0022
:101aa40004826200340798004800370004142000c0
:101ab400050020001e03be00840f5300858f5b00c9
:101ac40009003600d45580006622b900040278006b
:101ad400d4558800be029000b4fe2f000482620038
:101ae4003407980039003700041020000500200056
:101af4001e03be00840f5300858f5b00090036006f
:101b0400d45580006522b90004027800d4558800b9
:101b1400be029000f4fe2f00048262003407980095
:101b24002a003700040c2000050020001e03be001c
:101b3400840f5300858f5b0008003600d455800065
:101b44004222dd00d4558800be02900034ff2f00ed
:101b540004826200340798001c0037000408200047
:101b6400050020001e03be00840f5300858f5b0018
:101b740009003600d45580006322b90004027800bd
:101b8400d4558800be02900074ff2f0004826200c6
:101b9400340798000d0037000404200005002000dd
:101ba4001e03be00840f5300858f5b0007003600c0
:101bb400d455800004024200d4558800be0290002f
:101bc400b4ff2f000482620034079800d4558000cb
:101bd4004222dd00d45588004e429000e14f52006d
:101be40004003a003e029000141188005e03900045
:101bf400061188004e429000e24f520004003a0061
:101c04003e029000441188005e0390003611880063
:101c14000080fa00000006000c00fa00400798005b
:101c2400214f98000042eb00044f78002e4a9000a8
:101c3400e14f520054003a008500a9004e02900082
:101c4400241188000002eb003407980018003700c4
:101c54003e0290000402e80034079800d455800046
:101c6400be029000848f52000300360034c0b300db
:101c7400044f78000e003700051180000404200092
:101c840004826200e00f52000300320044c0b3003b
:101c9400044f7800060037000411800062026200dd
:101ca400e00f520002003a0014c0b300044f780061
:101cb4001e427800e04f5200e5ff3200200037005a
:101cc4003e0290000402e80034079800d4558000d6
:101cd400be029000848f52000300360034c0b3006b
:101ce400044f78001600370005118000040420001a
:101cf40004826200e00f52000300320044c0b300cb
:101d0400044f78000e0037002504800004102000e2
:101d140004826200e00f52000300320024c0b300ca
:101d2400044f78000600370004118000610262004d
:101d3400e00f52000200320024c0b300044f7800c8
:101d44001e427800e14f5200ddff32001e4278004f
:101d5400e24f520005003a002411800005002000e3
:101d64001407980025079800070037000400200096
:101d7400151121001407980025079800e4558000e8
:101d84000402e800e45588002e4a9000e24f520015
:101d94004d003a008740a9004e029000541188007b
:101da4000002eb0034079800180037003e02900050
:101db4000402e80034079800d4558000be02900065
:101dc400848f52000300360034c0b300044f7800ff
:101dd4000e003700351180000404200004826200e4
:101de400e00f52000300320044c0b300044f7800f7
:101df400060037003411800062026200e00f5200d6
:101e040002003a0014c0b300044f78001e42780068
:101e1400e04f5200e5ff3200190037003e02900007
:101e24000402e80034079800d4558000be029000f4
:101e3400848f52000300360034c0b300044f78008e
:101e44000f00370035118000040420000482620072
:101e5400e00f52000300320044c0b300044f780086
:101e6400070037003504800004402000048262002b
:101e7400e00f52000200320024c0b300044f780087
:101e84001e427800e14f5200e4ff32001e42780007
:101e9400e24f520005003a00541180000500200072
:101ea4001407980025079800070037000400200055
:101eb400151121001407980025079800f455800097
:101ec4000402e800f45588001e029000ae0290005f
:101ed4000400be000080fa0000000600100190001b
:101ee40090007800010051000000e900f000b20009
:101ef400000006001001900090007800028050005d
:101f0400f000b200000006001170a6001a003700ad
:101f1400e40140009309e800900190001001e800fa
:101f2400f200b2000310e10010003200100178004a
:101f34006a11b800e8014000828141006e815000be
:101f44009219780066014100b2197800b21978003c
:101f5400b2197800b21978001001e800f200b2005a
:101f640002087800e60140009309e900e601400018
:101f74009309e8001170a100000006001170a6008a
:101f8400090037006e815000121878006601410084
:101f94003218780032187800321878003218780035
:101fa4001170a10008003700827f21000218780018
:101fb4000200200002187800021878000218780045
:101fc400021878003100370000000600e4014000e8
:101fd4009309e800900190001001e800f200b200bb
:101fe4000310e1000e003200100178006a11b800fd
:101ff400e801400082814100b1197800b1197800ec
:10200400b1197800b1197800b11978001001e8000d
:10201400f200b20002087800e60140009309e900ea
:10202400e60140009309e80000000600100190005a
:10203400900178000310e10008003a00837f21003a
:102044008318780003002000831878008318780030
:1020540083187800831878000c0037006a11b800e0
:102064006801410000014100b2187800b2187800fc
:10207400b2187800b2187800b218780010019000f5
:102084000201e800f200b20012009800000006000d
:102094001130a70013003700100190009001780060
:1020a4000310e1000f0032006a11b800680141001a
:1020b40000014100ee815000b2097800e681410040
:1020c400b2197800b2197800b2197800b219780000
:1020d4001130a000100190000201e800f200b200eb
:1020e40012009800000006001130a1006e8150001b
:1020f4003009780066014100301978003019780001
:1021040030197800301978001130a0000000060062
:102114000018eb000018eb000018eb000008eb00bf
:10212400000006000200fa00000f78001e0278008a
:10213400b4029000240290000400be00be00070018
:102144001e0278001402be000400be00ba0007009c
:102154001e027800b4029000240290000400be0025
:10216400e90007001e0278001402be000400be004d
:10217400e50007001e027800240b9000b40b9000c9
:102184001e027800940a9000040a90001e00780051
:10219400f00190001e007800600190001e0078009d
:1021a400d00090001e00780000489000cffd07008a
:1021b4000080fa00000006000c00fa0030079800c6
:1021c4004107980052079800de029000f4ff2000b7
:1021d4000482620054079800ce02900004002f008d
:1021e4000482620044079800ce0290005e029000d0
:1021f40005027200440798000042eb00044f780087
:102204003e0290001402be000400be009b000700c2
:102214003e029000044a9000844078004e009000f2
:102224007dfe07000002be001407980025079800f1
:102234001e039000ae03900004002000151121003d
:10224400840f5300858f5b0002003a0014c0b30072
:10225400044f78003e0290001402be000400be0049
:10226400750007003e029000b40290002402900022
:102274000400be0081000700000000000000000010
:1022840000000000000000003e029000b402900034
:10229400240290000400be00670007001e4278007c
:1022a400e04f520003003200245680000402e8008c
:1022b400245688001e427800044078000080fa000a
:1022c400000006000400fa00100798001e029000a7
:1022d400c4029000050f78009e02780004102700c5
:1022e400848f520007003a001e02900024029000de
:1022f400545388001e029000240290004453880026
:1023040004003700844d80000402e800844d8800f6
:10231400000000000080fa00000006000400fa003b
:10232400100798001e029000c4029000050f780068
:102334001e02780005082700850f520004003200b1
:1023440015082700850f5200050032000d003700e4
:10235400649820008002eb00050a78000d00370025
:10236400649820009402780004102000040378008c
:10237400050373008602780064982000050a78003b
:1023840004003700844d80000402e800844d880076
:10239400000000000080fa00000006000400fa00bb
:1023a400100798001e029000c4029000050f7800e8
:1023b400f4ff20001e0f6200844d80000402e80038
:1023c400844d88000080fa00000006000000fa0036
:1023d4000080fa00000006000000fa00e461240016
:1023e400036b2300026524008000eb00c00420007e
:1023f40046f907000080fa00000006000000fa0019
:10240400e4612400036b2300026524008000eb00d8
:10241400d00420003df907000080fa000000060007
:102424000000fa000080fa00000006000000fa0034
:102434000080fa000000060001600100c422b70019
:1024440000000600ca22b70000000600d022b70030
:1024540000000600d622b7000000060000000000bd
:1024640000000600e222b70000000600e822b700e0
:102474000000060000000000000006000080ea00e2
:1024840001600100c422b60000000600ca22b600a2
:1024940000000600d022b60000000600d622b600d6
:1024a400000006000000000000000600e222b60062
:1024b40000000600e822b60000000600000000004c
:1024c4000000060001600100c022b7000000060001
:1024d400c622b70000000600cc22b70000000600a8
:1024e400d222b70000000600000000000000060031
:1024f400de22b70000000600e422b7000000060058
:1025040000000000000006000080ea0001600100f5
:10251400c022b60000000600c622b6000000060075
:10252400cc22b60000000600d222b600000006004d
:102534000000000000000600de22b60000000600d5
:10254400e422b600000006000000000000000600bf
:102554000200e00005003b000200400008003100da
:1025640000002000c02aec000500370002004000f3
:1025740003003900f0ff2f00c02aec0000003700f0
:102584000101b8006218b8000100e0000200320046
:10259400f0ff2f00c02aec00cf10de000100700015
:1025a400000006000200e00005003b0002004000bd
:1025b4000800310000002000c22aec0005003700aa
:1025c4000200400003003900f0ff2f00c22aec0093
:1025d400000037000101b8007018b8000100e000e5
:1025e40002003200f0ff2f00c22aec00cc10de0003
:0825f400010070000000060068
:020000040000fa
:1025fc00c0090000fa000000000000000008000004
:10260c00c001000000000000ba0a00000600000033
:10261c0000000000c40a00000200000000000000de
:10262c00c00a0000040000000000000000000000d0
:020000040000fa
:10263c00f03fb1000180b10006003500ee03090047
:10264c0000000000403fb1000180b100fbff3d00e5
:10265c001000b000203fb0000200350000800900df
:08266c00000000000000060060
:020000040000fa
:0200000401f009
:04000000ecbb000055
:020000040000fa
:0200000401f009
:04000400e7ff000012
:020000040000fa
:0200000401f009
:040008004cff0000a9
:020000040000fa
:0200000401f009
:04000c00ffff0000f2
:020000040000fa
:0200000401f009
:04001000ffff0000ee
:020000040000fa
:0200000401f009
:04001400ffff0000ea
:020000040000fa
:0200000401f009
:04001800ffff0000e6
:00000001FF
